{
  "_format": "hh-sol-artifact-1",
  "contractName": "BondManager",
  "sourceName": "contracts/BondManager.sol",
  "abi": [
    {
      "inputs": [],
      "stateMutability": "nonpayable",
      "type": "constructor"
    },
    {
      "anonymous": false,
      "inputs": [
        {
          "indexed": true,
          "internalType": "address",
          "name": "account",
          "type": "address"
        },
        {
          "indexed": true,
          "internalType": "address",
          "name": "operator",
          "type": "address"
        },
        {
          "indexed": false,
          "internalType": "bool",
          "name": "approved",
          "type": "bool"
        }
      ],
      "name": "ApprovalForAll",
      "type": "event"
    },
    {
      "anonymous": false,
      "inputs": [
        {
          "indexed": true,
          "internalType": "address",
          "name": "previousOwner",
          "type": "address"
        },
        {
          "indexed": true,
          "internalType": "address",
          "name": "newOwner",
          "type": "address"
        }
      ],
      "name": "OwnershipTransferred",
      "type": "event"
    },
    {
      "anonymous": false,
      "inputs": [
        {
          "indexed": true,
          "internalType": "address",
          "name": "operator",
          "type": "address"
        },
        {
          "indexed": true,
          "internalType": "address",
          "name": "from",
          "type": "address"
        },
        {
          "indexed": true,
          "internalType": "address",
          "name": "to",
          "type": "address"
        },
        {
          "indexed": false,
          "internalType": "uint256[]",
          "name": "ids",
          "type": "uint256[]"
        },
        {
          "indexed": false,
          "internalType": "uint256[]",
          "name": "values",
          "type": "uint256[]"
        }
      ],
      "name": "TransferBatch",
      "type": "event"
    },
    {
      "anonymous": false,
      "inputs": [
        {
          "indexed": true,
          "internalType": "address",
          "name": "operator",
          "type": "address"
        },
        {
          "indexed": true,
          "internalType": "address",
          "name": "from",
          "type": "address"
        },
        {
          "indexed": true,
          "internalType": "address",
          "name": "to",
          "type": "address"
        },
        {
          "indexed": false,
          "internalType": "uint256",
          "name": "id",
          "type": "uint256"
        },
        {
          "indexed": false,
          "internalType": "uint256",
          "name": "value",
          "type": "uint256"
        }
      ],
      "name": "TransferSingle",
      "type": "event"
    },
    {
      "anonymous": false,
      "inputs": [
        {
          "indexed": false,
          "internalType": "string",
          "name": "value",
          "type": "string"
        },
        {
          "indexed": true,
          "internalType": "uint256",
          "name": "id",
          "type": "uint256"
        }
      ],
      "name": "URI",
      "type": "event"
    },
    {
      "inputs": [
        {
          "internalType": "address",
          "name": "account",
          "type": "address"
        },
        {
          "internalType": "uint256",
          "name": "id",
          "type": "uint256"
        }
      ],
      "name": "balanceOf",
      "outputs": [
        {
          "internalType": "uint256",
          "name": "",
          "type": "uint256"
        }
      ],
      "stateMutability": "view",
      "type": "function"
    },
    {
      "inputs": [
        {
          "internalType": "address[]",
          "name": "accounts",
          "type": "address[]"
        },
        {
          "internalType": "uint256[]",
          "name": "ids",
          "type": "uint256[]"
        }
      ],
      "name": "balanceOfBatch",
      "outputs": [
        {
          "internalType": "uint256[]",
          "name": "",
          "type": "uint256[]"
        }
      ],
      "stateMutability": "view",
      "type": "function"
    },
    {
      "inputs": [
        {
          "internalType": "address",
          "name": "account",
          "type": "address"
        },
        {
          "internalType": "uint256",
          "name": "id",
          "type": "uint256"
        },
        {
          "internalType": "uint256",
          "name": "value",
          "type": "uint256"
        }
      ],
      "name": "burn",
      "outputs": [],
      "stateMutability": "nonpayable",
      "type": "function"
    },
    {
      "inputs": [
        {
          "internalType": "address",
          "name": "account",
          "type": "address"
        },
        {
          "internalType": "uint256[]",
          "name": "ids",
          "type": "uint256[]"
        },
        {
          "internalType": "uint256[]",
          "name": "values",
          "type": "uint256[]"
        }
      ],
      "name": "burnBatch",
      "outputs": [],
      "stateMutability": "nonpayable",
      "type": "function"
    },
    {
      "inputs": [
        {
          "internalType": "uint256",
          "name": "id",
          "type": "uint256"
        }
      ],
      "name": "exists",
      "outputs": [
        {
          "internalType": "bool",
          "name": "",
          "type": "bool"
        }
      ],
      "stateMutability": "view",
      "type": "function"
    },
    {
      "inputs": [
        {
          "internalType": "address",
          "name": "account",
          "type": "address"
        },
        {
          "internalType": "address",
          "name": "operator",
          "type": "address"
        }
      ],
      "name": "isApprovedForAll",
      "outputs": [
        {
          "internalType": "bool",
          "name": "",
          "type": "bool"
        }
      ],
      "stateMutability": "view",
      "type": "function"
    },
    {
      "inputs": [
        {
          "internalType": "address",
          "name": "account",
          "type": "address"
        },
        {
          "internalType": "uint256",
          "name": "amount",
          "type": "uint256"
        }
      ],
      "name": "mint",
      "outputs": [
        {
          "internalType": "uint256",
          "name": "",
          "type": "uint256"
        }
      ],
      "stateMutability": "nonpayable",
      "type": "function"
    },
    {
      "inputs": [],
      "name": "owner",
      "outputs": [
        {
          "internalType": "address",
          "name": "",
          "type": "address"
        }
      ],
      "stateMutability": "view",
      "type": "function"
    },
    {
      "inputs": [],
      "name": "renounceOwnership",
      "outputs": [],
      "stateMutability": "nonpayable",
      "type": "function"
    },
    {
      "inputs": [
        {
          "internalType": "address",
          "name": "from",
          "type": "address"
        },
        {
          "internalType": "address",
          "name": "to",
          "type": "address"
        },
        {
          "internalType": "uint256[]",
          "name": "ids",
          "type": "uint256[]"
        },
        {
          "internalType": "uint256[]",
          "name": "amounts",
          "type": "uint256[]"
        },
        {
          "internalType": "bytes",
          "name": "data",
          "type": "bytes"
        }
      ],
      "name": "safeBatchTransferFrom",
      "outputs": [],
      "stateMutability": "nonpayable",
      "type": "function"
    },
    {
      "inputs": [
        {
          "internalType": "address",
          "name": "from",
          "type": "address"
        },
        {
          "internalType": "address",
          "name": "to",
          "type": "address"
        },
        {
          "internalType": "uint256",
          "name": "id",
          "type": "uint256"
        },
        {
          "internalType": "uint256",
          "name": "amount",
          "type": "uint256"
        },
        {
          "internalType": "bytes",
          "name": "data",
          "type": "bytes"
        }
      ],
      "name": "safeTransferFrom",
      "outputs": [],
      "stateMutability": "nonpayable",
      "type": "function"
    },
    {
      "inputs": [
        {
          "internalType": "address",
          "name": "operator",
          "type": "address"
        },
        {
          "internalType": "bool",
          "name": "approved",
          "type": "bool"
        }
      ],
      "name": "setApprovalForAll",
      "outputs": [],
      "stateMutability": "nonpayable",
      "type": "function"
    },
    {
      "inputs": [
        {
          "internalType": "bytes4",
          "name": "interfaceId",
          "type": "bytes4"
        }
      ],
      "name": "supportsInterface",
      "outputs": [
        {
          "internalType": "bool",
          "name": "",
          "type": "bool"
        }
      ],
      "stateMutability": "view",
      "type": "function"
    },
    {
      "inputs": [
        {
          "internalType": "uint256",
          "name": "id",
          "type": "uint256"
        }
      ],
      "name": "totalSupply",
      "outputs": [
        {
          "internalType": "uint256",
          "name": "",
          "type": "uint256"
        }
      ],
      "stateMutability": "view",
      "type": "function"
    },
    {
      "inputs": [
        {
          "internalType": "address",
          "name": "newOwner",
          "type": "address"
        }
      ],
      "name": "transferOwnership",
      "outputs": [],
      "stateMutability": "nonpayable",
      "type": "function"
    },
    {
      "inputs": [
        {
          "internalType": "uint256",
          "name": "",
          "type": "uint256"
        }
      ],
      "name": "uri",
      "outputs": [
        {
          "internalType": "string",
          "name": "",
          "type": "string"
        }
      ],
      "stateMutability": "view",
      "type": "function"
    }
  ],
  "bytecode": "0x60806040523480156200001157600080fd5b506040805160208101909152600081526200002c816200003e565b50620000383362000057565b6200018c565b805162000053906002906020840190620000a9565b5050565b600380546001600160a01b038381166001600160a01b0319831681179093556040519116919082907f8be0079c531659141344cd1fd0a4f28419497f9722a3daafe3b4186f6b6457e090600090a35050565b828054620000b7906200014f565b90600052602060002090601f016020900481019282620000db576000855562000126565b82601f10620000f657805160ff191683800117855562000126565b8280016001018555821562000126579182015b828111156200012657825182559160200191906001019062000109565b506200013492915062000138565b5090565b5b8082111562000134576000815560010162000139565b600181811c908216806200016457607f821691505b602082108114156200018657634e487b7160e01b600052602260045260246000fd5b50919050565b611da2806200019c6000396000f3fe608060405234801561001057600080fd5b50600436106100ff5760003560e01c8063715018a611610097578063e985e9c511610066578063e985e9c514610240578063f242432a1461027c578063f2fde38b1461028f578063f5298aca146102a257600080fd5b8063715018a6146101ea5780638da5cb5b146101f2578063a22cb4651461020d578063bd85b0391461022057600080fd5b806340c10f19116100d357806340c10f19146101825780634e1273f4146101955780634f558e79146101b55780636b20c454146101d757600080fd5b8062fdd58e1461010457806301ffc9a71461012a5780630e89341c1461014d5780632eb2c2d61461016d575b600080fd5b6101176101123660046113c8565b6102b5565b6040519081526020015b60405180910390f35b61013d610138366004611408565b61034b565b6040519015158152602001610121565b61016061015b36600461142c565b61039d565b6040516101219190611492565b61018061017b3660046115f1565b610431565b005b6101176101903660046113c8565b61047d565b6101a86101a336600461169b565b6104c8565b60405161012191906117a1565b61013d6101c336600461142c565b600090815260046020526040902054151590565b6101806101e53660046117b4565b6105f2565b61018061063a565b6003546040516001600160a01b039091168152602001610121565b61018061021b366004611828565b61064e565b61011761022e36600461142c565b60009081526004602052604090205490565b61013d61024e366004611864565b6001600160a01b03918216600090815260016020908152604080832093909416825291909152205460ff1690565b61018061028a366004611897565b61065d565b61018061029d3660046118fc565b6106a2565b6101806102b0366004611917565b61071b565b60006001600160a01b0383166103255760405162461bcd60e51b815260206004820152602a60248201527f455243313135353a2061646472657373207a65726f206973206e6f742061207660448201526930b634b21037bbb732b960b11b60648201526084015b60405180910390fd5b506000908152602081815260408083206001600160a01b03949094168352929052205490565b60006001600160e01b03198216636cdb3d1360e11b148061037c57506001600160e01b031982166303a24d0760e21b145b8061039757506301ffc9a760e01b6001600160e01b03198316145b92915050565b6060600280546103ac9061194a565b80601f01602080910402602001604051908101604052809291908181526020018280546103d89061194a565b80156104255780601f106103fa57610100808354040283529160200191610425565b820191906000526020600020905b81548152906001019060200180831161040857829003601f168201915b50505050509050919050565b6001600160a01b03851633148061044d575061044d853361024e565b6104695760405162461bcd60e51b815260040161031c90611985565b610476858585858561075e565b5050505050565b6000610487610908565b60016005600082825461049a91906119e9565b925050819055506104be836005548460405180602001604052806000815250610962565b5060055492915050565b6060815183511461052d5760405162461bcd60e51b815260206004820152602960248201527f455243313135353a206163636f756e747320616e6420696473206c656e677468604482015268040dad2e6dac2e8c6d60bb1b606482015260840161031c565b6000835167ffffffffffffffff811115610549576105496114a5565b604051908082528060200260200182016040528015610572578160200160208202803683370190505b50905060005b84518110156105ea576105bd85828151811061059657610596611a01565b60200260200101518583815181106105b0576105b0611a01565b60200260200101516102b5565b8282815181106105cf576105cf611a01565b60209081029190910101526105e381611a17565b9050610578565b509392505050565b6001600160a01b03831633148061060e575061060e833361024e565b61062a5760405162461bcd60e51b815260040161031c90611985565b610635838383610a85565b505050565b610642610908565b61064c6000610c22565b565b610659338383610c74565b5050565b6001600160a01b0385163314806106795750610679853361024e565b6106955760405162461bcd60e51b815260040161031c90611985565b6104768585858585610d55565b6106aa610908565b6001600160a01b03811661070f5760405162461bcd60e51b815260206004820152602660248201527f4f776e61626c653a206e6577206f776e657220697320746865207a65726f206160448201526564647265737360d01b606482015260840161031c565b61071881610c22565b50565b6001600160a01b0383163314806107375750610737833361024e565b6107535760405162461bcd60e51b815260040161031c90611985565b610635838383610e8d565b815183511461077f5760405162461bcd60e51b815260040161031c90611a32565b6001600160a01b0384166107a55760405162461bcd60e51b815260040161031c90611a7a565b336107b4818787878787610fa5565b60005b845181101561089a5760008582815181106107d4576107d4611a01565b6020026020010151905060008583815181106107f2576107f2611a01565b602090810291909101810151600084815280835260408082206001600160a01b038e1683529093529190912054909150818110156108425760405162461bcd60e51b815260040161031c90611abf565b6000838152602081815260408083206001600160a01b038e8116855292528083208585039055908b1682528120805484929061087f9084906119e9565b925050819055505050508061089390611a17565b90506107b7565b50846001600160a01b0316866001600160a01b0316826001600160a01b03167f4a39dc06d4c0dbc64b70af90fd698a233a518aa5d07e595d983b8c0526c8f7fb87876040516108ea929190611b09565b60405180910390a4610900818787878787610fb3565b505050505050565b6003546001600160a01b0316331461064c5760405162461bcd60e51b815260206004820181905260248201527f4f776e61626c653a2063616c6c6572206973206e6f7420746865206f776e6572604482015260640161031c565b6001600160a01b0384166109c25760405162461bcd60e51b815260206004820152602160248201527f455243313135353a206d696e7420746f20746865207a65726f206164647265736044820152607360f81b606482015260840161031c565b3360006109ce8561111e565b905060006109db8561111e565b90506109ec83600089858589610fa5565b6000868152602081815260408083206001600160a01b038b16845290915281208054879290610a1c9084906119e9565b909155505060408051878152602081018790526001600160a01b03808a1692600092918716917fc3d58168c5ae7397731d063d5bbf3d657854427343f4c083240f7aacaa2d0f62910160405180910390a4610a7c83600089898989611169565b50505050505050565b6001600160a01b038316610aab5760405162461bcd60e51b815260040161031c90611b37565b8051825114610acc5760405162461bcd60e51b815260040161031c90611a32565b6000339050610aef81856000868660405180602001604052806000815250610fa5565b60005b8351811015610bb4576000848281518110610b0f57610b0f611a01565b602002602001015190506000848381518110610b2d57610b2d611a01565b602090810291909101810151600084815280835260408082206001600160a01b038c168352909352919091205490915081811015610b7d5760405162461bcd60e51b815260040161031c90611b7a565b6000928352602083815260408085206001600160a01b038b1686529091529092209103905580610bac81611a17565b915050610af2565b5060006001600160a01b0316846001600160a01b0316826001600160a01b03167f4a39dc06d4c0dbc64b70af90fd698a233a518aa5d07e595d983b8c0526c8f7fb8686604051610c05929190611b09565b60405180910390a460408051602081019091526000905250505050565b600380546001600160a01b038381166001600160a01b0319831681179093556040519116919082907f8be0079c531659141344cd1fd0a4f28419497f9722a3daafe3b4186f6b6457e090600090a35050565b816001600160a01b0316836001600160a01b03161415610ce85760405162461bcd60e51b815260206004820152602960248201527f455243313135353a2073657474696e6720617070726f76616c20737461747573604482015268103337b91039b2b63360b91b606482015260840161031c565b6001600160a01b03838116600081815260016020908152604080832094871680845294825291829020805460ff191686151590811790915591519182527f17307eab39ab6107e8899845ad3d59bd9653f200f220920489ca2b5937696c31910160405180910390a3505050565b6001600160a01b038416610d7b5760405162461bcd60e51b815260040161031c90611a7a565b336000610d878561111e565b90506000610d948561111e565b9050610da4838989858589610fa5565b6000868152602081815260408083206001600160a01b038c16845290915290205485811015610de55760405162461bcd60e51b815260040161031c90611abf565b6000878152602081815260408083206001600160a01b038d8116855292528083208985039055908a16825281208054889290610e229084906119e9565b909155505060408051888152602081018890526001600160a01b03808b16928c821692918816917fc3d58168c5ae7397731d063d5bbf3d657854427343f4c083240f7aacaa2d0f62910160405180910390a4610e82848a8a8a8a8a611169565b505050505050505050565b6001600160a01b038316610eb35760405162461bcd60e51b815260040161031c90611b37565b336000610ebf8461111e565b90506000610ecc8461111e565b9050610eec83876000858560405180602001604052806000815250610fa5565b6000858152602081815260408083206001600160a01b038a16845290915290205484811015610f2d5760405162461bcd60e51b815260040161031c90611b7a565b6000868152602081815260408083206001600160a01b038b81168086529184528285208a8703905582518b81529384018a90529092908816917fc3d58168c5ae7397731d063d5bbf3d657854427343f4c083240f7aacaa2d0f62910160405180910390a4604080516020810190915260009052610a7c565b610900868686868686611233565b6001600160a01b0384163b156109005760405163bc197c8160e01b81526001600160a01b0385169063bc197c8190610ff79089908990889088908890600401611bbe565b602060405180830381600087803b15801561101157600080fd5b505af1925050508015611041575060408051601f3d908101601f1916820190925261103e91810190611c1c565b60015b6110ee5761104d611c39565b806308c379a014156110875750611062611c55565b8061106d5750611089565b8060405162461bcd60e51b815260040161031c9190611492565b505b60405162461bcd60e51b815260206004820152603460248201527f455243313135353a207472616e7366657220746f206e6f6e2d455243313135356044820152732932b1b2b4bb32b91034b6b83632b6b2b73a32b960611b606482015260840161031c565b6001600160e01b0319811663bc197c8160e01b14610a7c5760405162461bcd60e51b815260040161031c90611cdf565b6040805160018082528183019092526060916000919060208083019080368337019050509050828160008151811061115857611158611a01565b602090810291909101015292915050565b6001600160a01b0384163b156109005760405163f23a6e6160e01b81526001600160a01b0385169063f23a6e61906111ad9089908990889088908890600401611d27565b602060405180830381600087803b1580156111c757600080fd5b505af19250505080156111f7575060408051601f3d908101601f191682019092526111f491810190611c1c565b60015b6112035761104d611c39565b6001600160e01b0319811663f23a6e6160e01b14610a7c5760405162461bcd60e51b815260040161031c90611cdf565b6001600160a01b0385166112ba5760005b83518110156112b85782818151811061125f5761125f611a01565b60200260200101516004600086848151811061127d5761127d611a01565b6020026020010151815260200190815260200160002060008282546112a291906119e9565b909155506112b1905081611a17565b9050611244565b505b6001600160a01b0384166109005760005b8351811015610a7c5760008482815181106112e8576112e8611a01565b60200260200101519050600084838151811061130657611306611a01565b60200260200101519050600060046000848152602001908152602001600020549050818110156113895760405162461bcd60e51b815260206004820152602860248201527f455243313135353a206275726e20616d6f756e74206578636565647320746f74604482015267616c537570706c7960c01b606482015260840161031c565b600092835260046020526040909220910390556113a581611a17565b90506112cb565b80356001600160a01b03811681146113c357600080fd5b919050565b600080604083850312156113db57600080fd5b6113e4836113ac565b946020939093013593505050565b6001600160e01b03198116811461071857600080fd5b60006020828403121561141a57600080fd5b8135611425816113f2565b9392505050565b60006020828403121561143e57600080fd5b5035919050565b6000815180845260005b8181101561146b5760208185018101518683018201520161144f565b8181111561147d576000602083870101525b50601f01601f19169290920160200192915050565b6020815260006114256020830184611445565b634e487b7160e01b600052604160045260246000fd5b601f8201601f1916810167ffffffffffffffff811182821017156114e1576114e16114a5565b6040525050565b600067ffffffffffffffff821115611502576115026114a5565b5060051b60200190565b600082601f83011261151d57600080fd5b8135602061152a826114e8565b60405161153782826114bb565b83815260059390931b850182019282810191508684111561155757600080fd5b8286015b84811015611572578035835291830191830161155b565b509695505050505050565b600082601f83011261158e57600080fd5b813567ffffffffffffffff8111156115a8576115a86114a5565b6040516115bf601f8301601f1916602001826114bb565b8181528460208386010111156115d457600080fd5b816020850160208301376000918101602001919091529392505050565b600080600080600060a0868803121561160957600080fd5b611612866113ac565b9450611620602087016113ac565b9350604086013567ffffffffffffffff8082111561163d57600080fd5b61164989838a0161150c565b9450606088013591508082111561165f57600080fd5b61166b89838a0161150c565b9350608088013591508082111561168157600080fd5b5061168e8882890161157d565b9150509295509295909350565b600080604083850312156116ae57600080fd5b823567ffffffffffffffff808211156116c657600080fd5b818501915085601f8301126116da57600080fd5b813560206116e7826114e8565b6040516116f482826114bb565b83815260059390931b850182019282810191508984111561171457600080fd5b948201945b838610156117395761172a866113ac565b82529482019490820190611719565b9650508601359250508082111561174f57600080fd5b5061175c8582860161150c565b9150509250929050565b600081518084526020808501945080840160005b838110156117965781518752958201959082019060010161177a565b509495945050505050565b6020815260006114256020830184611766565b6000806000606084860312156117c957600080fd5b6117d2846113ac565b9250602084013567ffffffffffffffff808211156117ef57600080fd5b6117fb8783880161150c565b9350604086013591508082111561181157600080fd5b5061181e8682870161150c565b9150509250925092565b6000806040838503121561183b57600080fd5b611844836113ac565b91506020830135801515811461185957600080fd5b809150509250929050565b6000806040838503121561187757600080fd5b611880836113ac565b915061188e602084016113ac565b90509250929050565b600080600080600060a086880312156118af57600080fd5b6118b8866113ac565b94506118c6602087016113ac565b93506040860135925060608601359150608086013567ffffffffffffffff8111156118f057600080fd5b61168e8882890161157d565b60006020828403121561190e57600080fd5b611425826113ac565b60008060006060848603121561192c57600080fd5b611935846113ac565b95602085013595506040909401359392505050565b600181811c9082168061195e57607f821691505b6020821081141561197f57634e487b7160e01b600052602260045260246000fd5b50919050565b6020808252602e908201527f455243313135353a2063616c6c6572206973206e6f7420746f6b656e206f776e60408201526d195c881bdc88185c1c1c9bdd995960921b606082015260800190565b634e487b7160e01b600052601160045260246000fd5b600082198211156119fc576119fc6119d3565b500190565b634e487b7160e01b600052603260045260246000fd5b6000600019821415611a2b57611a2b6119d3565b5060010190565b60208082526028908201527f455243313135353a2069647320616e6420616d6f756e7473206c656e677468206040820152670dad2e6dac2e8c6d60c31b606082015260800190565b60208082526025908201527f455243313135353a207472616e7366657220746f20746865207a65726f206164604082015264647265737360d81b606082015260800190565b6020808252602a908201527f455243313135353a20696e73756666696369656e742062616c616e636520666f60408201526939103a3930b739b332b960b11b606082015260800190565b604081526000611b1c6040830185611766565b8281036020840152611b2e8185611766565b95945050505050565b60208082526023908201527f455243313135353a206275726e2066726f6d20746865207a65726f206164647260408201526265737360e81b606082015260800190565b60208082526024908201527f455243313135353a206275726e20616d6f756e7420657863656564732062616c604082015263616e636560e01b606082015260800190565b6001600160a01b0386811682528516602082015260a060408201819052600090611bea90830186611766565b8281036060840152611bfc8186611766565b90508281036080840152611c108185611445565b98975050505050505050565b600060208284031215611c2e57600080fd5b8151611425816113f2565b600060033d1115611c525760046000803e5060005160e01c5b90565b600060443d1015611c635790565b6040516003193d81016004833e81513d67ffffffffffffffff8160248401118184111715611c9357505050505090565b8285019150815181811115611cab5750505050505090565b843d8701016020828501011115611cc55750505050505090565b611cd4602082860101876114bb565b509095945050505050565b60208082526028908201527f455243313135353a204552433131353552656365697665722072656a656374656040820152676420746f6b656e7360c01b606082015260800190565b6001600160a01b03868116825285166020820152604081018490526060810183905260a060808201819052600090611d6190830184611445565b97965050505050505056fea26469706673582212203acef3a9bbc18210c7700ad8da4f8aaef67a8a7cd421b84e96c45e4103240ddb64736f6c63430008090033",
  "linkReferences": {},
  "deployedLinkReferences": {}
}