{
  "_format": "hh-sol-artifact-1",
  "contractName": "Deal",
  "sourceName": "contracts/Deal.sol",
  "abi": [
    {
      "inputs": [
        {
          "internalType": "address",
          "name": "_dealFactory",
          "type": "address"
        },
        {
          "internalType": "address",
          "name": "_denom",
          "type": "address"
        },
        {
          "internalType": "uint256",
          "name": "_principal",
          "type": "uint256"
        },
        {
          "internalType": "uint256",
          "name": "_coupon",
          "type": "uint256"
        },
        {
          "internalType": "uint256",
          "name": "_maturity",
          "type": "uint256"
        },
        {
          "internalType": "uint256",
          "name": "_supply",
          "type": "uint256"
        },
        {
          "internalType": "address",
          "name": "_admin",
          "type": "address"
        }
      ],
      "stateMutability": "nonpayable",
      "type": "constructor"
    },
    {
      "inputs": [],
      "name": "admin",
      "outputs": [
        {
          "internalType": "address",
          "name": "",
          "type": "address"
        }
      ],
      "stateMutability": "view",
      "type": "function"
    },
    {
      "inputs": [],
      "name": "amtLeft",
      "outputs": [
        {
          "internalType": "uint256",
          "name": "",
          "type": "uint256"
        }
      ],
      "stateMutability": "view",
      "type": "function"
    },
    {
      "inputs": [
        {
          "internalType": "uint256",
          "name": "numBonds",
          "type": "uint256"
        }
      ],
      "name": "calcAtomicPrice",
      "outputs": [
        {
          "internalType": "uint256",
          "name": "",
          "type": "uint256"
        }
      ],
      "stateMutability": "view",
      "type": "function"
    },
    {
      "inputs": [],
      "name": "calcPricePer",
      "outputs": [
        {
          "internalType": "uint256",
          "name": "",
          "type": "uint256"
        }
      ],
      "stateMutability": "view",
      "type": "function"
    },
    {
      "inputs": [],
      "name": "cancel",
      "outputs": [],
      "stateMutability": "nonpayable",
      "type": "function"
    },
    {
      "inputs": [],
      "name": "collectBond",
      "outputs": [],
      "stateMutability": "nonpayable",
      "type": "function"
    },
    {
      "inputs": [],
      "name": "coupon",
      "outputs": [
        {
          "internalType": "uint256",
          "name": "",
          "type": "uint256"
        }
      ],
      "stateMutability": "view",
      "type": "function"
    },
    {
      "inputs": [
        {
          "internalType": "address",
          "name": "",
          "type": "address"
        }
      ],
      "name": "creditors",
      "outputs": [
        {
          "internalType": "uint256",
          "name": "",
          "type": "uint256"
        }
      ],
      "stateMutability": "view",
      "type": "function"
    },
    {
      "inputs": [],
      "name": "denom",
      "outputs": [
        {
          "internalType": "address",
          "name": "",
          "type": "address"
        }
      ],
      "stateMutability": "view",
      "type": "function"
    },
    {
      "inputs": [
        {
          "internalType": "uint256",
          "name": "numBonds",
          "type": "uint256"
        }
      ],
      "name": "deposit",
      "outputs": [],
      "stateMutability": "nonpayable",
      "type": "function"
    },
    {
      "inputs": [],
      "name": "execute",
      "outputs": [],
      "stateMutability": "nonpayable",
      "type": "function"
    },
    {
      "inputs": [],
      "name": "maturity",
      "outputs": [
        {
          "internalType": "uint256",
          "name": "",
          "type": "uint256"
        }
      ],
      "stateMutability": "view",
      "type": "function"
    },
    {
      "inputs": [
        {
          "internalType": "address",
          "name": "",
          "type": "address"
        },
        {
          "internalType": "address",
          "name": "",
          "type": "address"
        },
        {
          "internalType": "uint256[]",
          "name": "",
          "type": "uint256[]"
        },
        {
          "internalType": "uint256[]",
          "name": "",
          "type": "uint256[]"
        },
        {
          "internalType": "bytes",
          "name": "",
          "type": "bytes"
        }
      ],
      "name": "onERC1155BatchReceived",
      "outputs": [
        {
          "internalType": "bytes4",
          "name": "",
          "type": "bytes4"
        }
      ],
      "stateMutability": "nonpayable",
      "type": "function"
    },
    {
      "inputs": [
        {
          "internalType": "address",
          "name": "",
          "type": "address"
        },
        {
          "internalType": "address",
          "name": "",
          "type": "address"
        },
        {
          "internalType": "uint256",
          "name": "",
          "type": "uint256"
        },
        {
          "internalType": "uint256",
          "name": "",
          "type": "uint256"
        },
        {
          "internalType": "bytes",
          "name": "",
          "type": "bytes"
        }
      ],
      "name": "onERC1155Received",
      "outputs": [
        {
          "internalType": "bytes4",
          "name": "",
          "type": "bytes4"
        }
      ],
      "stateMutability": "nonpayable",
      "type": "function"
    },
    {
      "inputs": [],
      "name": "principal",
      "outputs": [
        {
          "internalType": "uint256",
          "name": "",
          "type": "uint256"
        }
      ],
      "stateMutability": "view",
      "type": "function"
    },
    {
      "inputs": [],
      "name": "redeemBond",
      "outputs": [],
      "stateMutability": "nonpayable",
      "type": "function"
    },
    {
      "inputs": [],
      "name": "repaymentAmt",
      "outputs": [
        {
          "internalType": "uint256",
          "name": "",
          "type": "uint256"
        }
      ],
      "stateMutability": "view",
      "type": "function"
    },
    {
      "inputs": [],
      "name": "status",
      "outputs": [
        {
          "internalType": "uint256",
          "name": "",
          "type": "uint256"
        }
      ],
      "stateMutability": "view",
      "type": "function"
    },
    {
      "inputs": [],
      "name": "supply",
      "outputs": [
        {
          "internalType": "uint256",
          "name": "",
          "type": "uint256"
        }
      ],
      "stateMutability": "view",
      "type": "function"
    },
    {
      "inputs": [
        {
          "internalType": "bytes4",
          "name": "interfaceId",
          "type": "bytes4"
        }
      ],
      "name": "supportsInterface",
      "outputs": [
        {
          "internalType": "bool",
          "name": "",
          "type": "bool"
        }
      ],
      "stateMutability": "view",
      "type": "function"
    },
    {
      "inputs": [],
      "name": "withdraw",
      "outputs": [],
      "stateMutability": "nonpayable",
      "type": "function"
    }
  ],
  "bytecode": "0x60806040526000600a553480156200001657600080fd5b506040516200138e3803806200138e833981016040819052620000399162000217565b600085116200008f5760405162461bcd60e51b815260206004820152601e60248201527f50726963652073686f756c642062652067726561746572207468616e2030000060448201526064015b60405180910390fd5b60008211620000e15760405162461bcd60e51b815260206004820152601d60248201527f537570706c79206d7573742062652067726561746572207468616e2030000000604482015260640162000086565b600080546001600160a01b038089166001600160a01b03199283168117909355600188905560028781556003879055600486815560058790556006805487851690861617905560078054938d1693909416929092179092556040805163313ce56760e01b8152905192939263313ce56792828101926020929190829003018186803b1580156200017057600080fd5b505afa15801562000185573d6000803e3d6000fd5b505050506040513d601f19601f82011682018060405250810190620001ab919062000288565b620001b79190620002ca565b620001c490600a620003ef565b620001d185606462000400565b620001dd90876200041b565b620001e991906200041b565b600855506200043d95505050505050565b80516001600160a01b03811681146200021257600080fd5b919050565b600080600080600080600060e0888a0312156200023357600080fd5b6200023e88620001fa565b96506200024e60208901620001fa565b955060408801519450606088015193506080880151925060a088015191506200027a60c08901620001fa565b905092959891949750929550565b6000602082840312156200029b57600080fd5b815160ff81168114620002ad57600080fd5b9392505050565b634e487b7160e01b600052601160045260246000fd5b600060ff821660ff841680821015620002e757620002e7620002b4565b90039392505050565b600181815b8085111562000331578160001904821115620003155762000315620002b4565b808516156200032357918102915b93841c9390800290620002f5565b509250929050565b6000826200034a57506001620003e9565b816200035957506000620003e9565b81600181146200037257600281146200037d576200039d565b6001915050620003e9565b60ff841115620003915762000391620002b4565b50506001821b620003e9565b5060208310610133831016604e8410600b8410161715620003c2575081810a620003e9565b620003ce8383620002f0565b8060001904821115620003e557620003e5620002b4565b0290505b92915050565b6000620002ad60ff84168362000339565b60008219821115620004165762000416620002b4565b500190565b6000816000190483118215151615620004385762000438620002b4565b500290565b610f41806200044d6000396000f3fe608060405234801561001057600080fd5b50600436106101375760003560e01c806375312c62116100b8578063bc197c811161007c578063bc197c811461020e578063c370b04214610246578063ea8a1af014610271578063f23a6e6114610279578063f851a44014610298578063f959553c146102ab57600080fd5b806375312c62146101c157806394f0cf70146101e1578063aee120d6146101ea578063b6b55f25146101f2578063ba5d30781461020557600080fd5b806338e04280116100ff57806338e04280146101965780633ccfd60b1461019e5780635049b278146101a857806355c01345146101b057806361461954146101b957600080fd5b806301ffc9a71461013c578063047fc9aa14610164578063200d2ed21461017b578063204f83f9146101845780632fc9629b1461018d575b600080fd5b61014f61014a366004610a28565b6102be565b60405190151581526020015b60405180910390f35b61016d60045481565b60405190815260200161015b565b61016d600a5481565b61016d60035481565b61016d60085481565b61016d6102f5565b6101a66103b2565b005b6101a6610486565b61016d60025481565b6101a6610661565b61016d6101cf366004610a75565b60096020526000908152604090205481565b61016d60055481565b6101a661070c565b6101a6610200366004610a90565b6107f6565b61016d60015481565b61022d61021c366004610be0565b63bc197c8160e01b95945050505050565b6040516001600160e01b0319909116815260200161015b565b600054610259906001600160a01b031681565b6040516001600160a01b03909116815260200161015b565b6101a661093d565b61022d610287366004610c8a565b63f23a6e6160e01b95945050505050565b600654610259906001600160a01b031681565b61016d6102b9366004610a90565b61097f565b60006001600160e01b03198216630271189760e51b14806102ef57506301ffc9a760e01b6001600160e01b03198316145b92915050565b600080546040805163313ce56760e01b815290516002926001600160a01b03169163313ce567916004808301926020929190829003018186803b15801561033b57600080fd5b505afa15801561034f573d6000803e3d6000fd5b505050506040513d601f19601f820116820180604052508101906103739190610cef565b61037d9190610d28565b61038890600a610e2f565b600254610396906064610e3e565b6001546103a39190610e56565b6103ad9190610e56565b905090565b600280600a54146103c257600080fd5b600080543380835260096020526040909220546001600160a01b0390911691829163a9059cbb91906103f39061097f565b6040516001600160e01b031960e085901b1681526001600160a01b0390921660048301526024820152604401602060405180830381600087803b15801561043957600080fd5b505af115801561044d573d6000803e3d6000fd5b505050506040513d601f19601f820116820180604052508101906104719190610e75565b50503360009081526009602052604081205550565b600180600a541461049657600080fd5b6003544210156104ed5760405162461bcd60e51b815260206004820152601c60248201527f54686520626f6e6420686173206e6f74206d617475726564207965740000000060448201526064015b60405180910390fd5b6000546008546040516370a0823160e01b81523060048201526001600160a01b039092169182906370a082319060240160206040518083038186803b15801561053557600080fd5b505afa158015610549573d6000803e3d6000fd5b505050506040513d601f19601f8201168201806040525081019061056d9190610e97565b146105cc5760405162461bcd60e51b815260206004820152602960248201527f546865206465616c20636f6e747261637420686173206e6f7420796574206265604482015268195b88199d5b99195960ba1b60648201526084016104e4565b6007546001600160a01b031663cb7eb689336105e66102f5565b336000908152600960205260409081902054905160e085901b6001600160e01b03191681526001600160a01b03909316600484015260248301919091526044820152606401600060405180830381600087803b15801561064557600080fd5b505af1158015610659573d6000803e3d6000fd5b505050505050565b6006546001600160a01b0316331461068b5760405162461bcd60e51b81526004016104e490610eb0565b600080600a541461069b57600080fd5b600554156107045760405162461bcd60e51b815260206004820152603060248201527f4465616c2063616e6e6f742065786563757465206265636175736520616d6f7560448201526f06e74206c656674206973206e6f7420360841b60648201526084016104e4565b506001600a55565b600180600a541461071c57600080fd5b3360009081526009602052604090205461076e5760405162461bcd60e51b8152602060048201526013602482015272139bc8189bdb991cc81d1bc818dbdb1b1958dd606a1b60448201526064016104e4565b6007543360008181526009602052604090819020549051633c4a59fd60e01b8152600481019290925260248201526001600160a01b0390911690633c4a59fd90604401600060405180830381600087803b1580156107cb57600080fd5b505af11580156107df573d6000803e3d6000fd5b505033600090815260096020526040812055505050565b600080600a541461080657600080fd5b6005548211156108585760405162461bcd60e51b815260206004820152601f60248201527f546865726520617265206e6f7420656e6f75676820626f6e6473206c6566740060448201526064016104e4565b6000546001600160a01b0316806323b872dd33306108758761097f565b6040516001600160e01b031960e086901b1681526001600160a01b0393841660048201529290911660248301526044820152606401602060405180830381600087803b1580156108c457600080fd5b505af11580156108d8573d6000803e3d6000fd5b505050506040513d601f19601f820116820180604052508101906108fc9190610e75565b50826005600082825461090f9190610ef4565b90915550503360009081526009602052604081208054859290610933908490610e3e565b9091555050505050565b6006546001600160a01b031633146109675760405162461bcd60e51b81526004016104e490610eb0565b600080600a541461097757600080fd5b506002600a55565b60008060009054906101000a90046001600160a01b03166001600160a01b031663313ce5676040518163ffffffff1660e01b815260040160206040518083038186803b1580156109ce57600080fd5b505afa1580156109e2573d6000803e3d6000fd5b505050506040513d601f19601f82011682018060405250810190610a069190610cef565b610a1190600a610e2f565b600154610a1e9084610e56565b6102ef9190610e56565b600060208284031215610a3a57600080fd5b81356001600160e01b031981168114610a5257600080fd5b9392505050565b80356001600160a01b0381168114610a7057600080fd5b919050565b600060208284031215610a8757600080fd5b610a5282610a59565b600060208284031215610aa257600080fd5b5035919050565b634e487b7160e01b600052604160045260246000fd5b604051601f8201601f1916810167ffffffffffffffff81118282101715610ae857610ae8610aa9565b604052919050565b600082601f830112610b0157600080fd5b8135602067ffffffffffffffff821115610b1d57610b1d610aa9565b8160051b610b2c828201610abf565b9283528481018201928281019087851115610b4657600080fd5b83870192505b84831015610b6557823582529183019190830190610b4c565b979650505050505050565b600082601f830112610b8157600080fd5b813567ffffffffffffffff811115610b9b57610b9b610aa9565b610bae601f8201601f1916602001610abf565b818152846020838601011115610bc357600080fd5b816020850160208301376000918101602001919091529392505050565b600080600080600060a08688031215610bf857600080fd5b610c0186610a59565b9450610c0f60208701610a59565b9350604086013567ffffffffffffffff80821115610c2c57600080fd5b610c3889838a01610af0565b94506060880135915080821115610c4e57600080fd5b610c5a89838a01610af0565b93506080880135915080821115610c7057600080fd5b50610c7d88828901610b70565b9150509295509295909350565b600080600080600060a08688031215610ca257600080fd5b610cab86610a59565b9450610cb960208701610a59565b93506040860135925060608601359150608086013567ffffffffffffffff811115610ce357600080fd5b610c7d88828901610b70565b600060208284031215610d0157600080fd5b815160ff81168114610a5257600080fd5b634e487b7160e01b600052601160045260246000fd5b600060ff821660ff841680821015610d4257610d42610d12565b90039392505050565b600181815b80851115610d86578160001904821115610d6c57610d6c610d12565b80851615610d7957918102915b93841c9390800290610d50565b509250929050565b600082610d9d575060016102ef565b81610daa575060006102ef565b8160018114610dc05760028114610dca57610de6565b60019150506102ef565b60ff841115610ddb57610ddb610d12565b50506001821b6102ef565b5060208310610133831016604e8410600b8410161715610e09575081810a6102ef565b610e138383610d4b565b8060001904821115610e2757610e27610d12565b029392505050565b6000610a5260ff841683610d8e565b60008219821115610e5157610e51610d12565b500190565b6000816000190483118215151615610e7057610e70610d12565b500290565b600060208284031215610e8757600080fd5b81518015158114610a5257600080fd5b600060208284031215610ea957600080fd5b5051919050565b60208082526024908201527f4d7573742062652061646d696e20746f2063616c6c20746869732066756e637460408201526334b7b71760e11b606082015260800190565b600082821015610f0657610f06610d12565b50039056fea2646970667358221220d633673c1e6da61b938e7622e861dd7cb5d48dad401f9399ffb196bbc813c44c64736f6c63430008090033",
  "linkReferences": {},
  "deployedLinkReferences": {}
}