{
  "_format": "hh-sol-artifact-1",
  "contractName": "Deal",
  "sourceName": "contracts/Deal.sol",
  "abi": [
    {
      "inputs": [
        {
          "internalType": "address",
          "name": "_dealFactory",
          "type": "address"
        },
        {
          "internalType": "address",
          "name": "_bondManager",
          "type": "address"
        },
        {
          "internalType": "address",
          "name": "_denom",
          "type": "address"
        },
        {
          "internalType": "uint256",
          "name": "_principal",
          "type": "uint256"
        },
        {
          "internalType": "uint256",
          "name": "_coupon",
          "type": "uint256"
        },
        {
          "internalType": "uint256",
          "name": "_maturity",
          "type": "uint256"
        },
        {
          "internalType": "uint256",
          "name": "_supply",
          "type": "uint256"
        },
        {
          "internalType": "address",
          "name": "_admin",
          "type": "address"
        }
      ],
      "stateMutability": "nonpayable",
      "type": "constructor"
    },
    {
      "inputs": [],
      "name": "admin",
      "outputs": [
        {
          "internalType": "address",
          "name": "",
          "type": "address"
        }
      ],
      "stateMutability": "view",
      "type": "function"
    },
    {
      "inputs": [],
      "name": "amtLeft",
      "outputs": [
        {
          "internalType": "uint256",
          "name": "",
          "type": "uint256"
        }
      ],
      "stateMutability": "view",
      "type": "function"
    },
    {
      "inputs": [],
      "name": "bondManager",
      "outputs": [
        {
          "internalType": "address",
          "name": "",
          "type": "address"
        }
      ],
      "stateMutability": "view",
      "type": "function"
    },
    {
      "inputs": [
        {
          "internalType": "uint256",
          "name": "numBonds",
          "type": "uint256"
        }
      ],
      "name": "calcAtomicPrice",
      "outputs": [
        {
          "internalType": "uint256",
          "name": "",
          "type": "uint256"
        }
      ],
      "stateMutability": "view",
      "type": "function"
    },
    {
      "inputs": [],
      "name": "calcPricePer",
      "outputs": [
        {
          "internalType": "uint256",
          "name": "",
          "type": "uint256"
        }
      ],
      "stateMutability": "view",
      "type": "function"
    },
    {
      "inputs": [],
      "name": "cancel",
      "outputs": [],
      "stateMutability": "nonpayable",
      "type": "function"
    },
    {
      "inputs": [],
      "name": "collectBond",
      "outputs": [],
      "stateMutability": "nonpayable",
      "type": "function"
    },
    {
      "inputs": [],
      "name": "coupon",
      "outputs": [
        {
          "internalType": "uint256",
          "name": "",
          "type": "uint256"
        }
      ],
      "stateMutability": "view",
      "type": "function"
    },
    {
      "inputs": [
        {
          "internalType": "address",
          "name": "",
          "type": "address"
        }
      ],
      "name": "creditors",
      "outputs": [
        {
          "internalType": "uint256",
          "name": "",
          "type": "uint256"
        }
      ],
      "stateMutability": "view",
      "type": "function"
    },
    {
      "inputs": [],
      "name": "dealFactory",
      "outputs": [
        {
          "internalType": "address",
          "name": "",
          "type": "address"
        }
      ],
      "stateMutability": "view",
      "type": "function"
    },
    {
      "inputs": [],
      "name": "denom",
      "outputs": [
        {
          "internalType": "address",
          "name": "",
          "type": "address"
        }
      ],
      "stateMutability": "view",
      "type": "function"
    },
    {
      "inputs": [
        {
          "internalType": "uint256",
          "name": "numBonds",
          "type": "uint256"
        }
      ],
      "name": "deposit",
      "outputs": [],
      "stateMutability": "nonpayable",
      "type": "function"
    },
    {
      "inputs": [],
      "name": "execute",
      "outputs": [],
      "stateMutability": "nonpayable",
      "type": "function"
    },
    {
      "inputs": [],
      "name": "maturity",
      "outputs": [
        {
          "internalType": "uint256",
          "name": "",
          "type": "uint256"
        }
      ],
      "stateMutability": "view",
      "type": "function"
    },
    {
      "inputs": [
        {
          "internalType": "address",
          "name": "",
          "type": "address"
        },
        {
          "internalType": "address",
          "name": "",
          "type": "address"
        },
        {
          "internalType": "uint256[]",
          "name": "",
          "type": "uint256[]"
        },
        {
          "internalType": "uint256[]",
          "name": "",
          "type": "uint256[]"
        },
        {
          "internalType": "bytes",
          "name": "",
          "type": "bytes"
        }
      ],
      "name": "onERC1155BatchReceived",
      "outputs": [
        {
          "internalType": "bytes4",
          "name": "",
          "type": "bytes4"
        }
      ],
      "stateMutability": "nonpayable",
      "type": "function"
    },
    {
      "inputs": [
        {
          "internalType": "address",
          "name": "",
          "type": "address"
        },
        {
          "internalType": "address",
          "name": "",
          "type": "address"
        },
        {
          "internalType": "uint256",
          "name": "",
          "type": "uint256"
        },
        {
          "internalType": "uint256",
          "name": "",
          "type": "uint256"
        },
        {
          "internalType": "bytes",
          "name": "",
          "type": "bytes"
        }
      ],
      "name": "onERC1155Received",
      "outputs": [
        {
          "internalType": "bytes4",
          "name": "",
          "type": "bytes4"
        }
      ],
      "stateMutability": "nonpayable",
      "type": "function"
    },
    {
      "inputs": [],
      "name": "principal",
      "outputs": [
        {
          "internalType": "uint256",
          "name": "",
          "type": "uint256"
        }
      ],
      "stateMutability": "view",
      "type": "function"
    },
    {
      "inputs": [],
      "name": "redeemBond",
      "outputs": [],
      "stateMutability": "nonpayable",
      "type": "function"
    },
    {
      "inputs": [],
      "name": "repaymentAmt",
      "outputs": [
        {
          "internalType": "uint256",
          "name": "",
          "type": "uint256"
        }
      ],
      "stateMutability": "view",
      "type": "function"
    },
    {
      "inputs": [],
      "name": "status",
      "outputs": [
        {
          "internalType": "uint256",
          "name": "",
          "type": "uint256"
        }
      ],
      "stateMutability": "view",
      "type": "function"
    },
    {
      "inputs": [],
      "name": "supply",
      "outputs": [
        {
          "internalType": "uint256",
          "name": "",
          "type": "uint256"
        }
      ],
      "stateMutability": "view",
      "type": "function"
    },
    {
      "inputs": [
        {
          "internalType": "bytes4",
          "name": "interfaceId",
          "type": "bytes4"
        }
      ],
      "name": "supportsInterface",
      "outputs": [
        {
          "internalType": "bool",
          "name": "",
          "type": "bool"
        }
      ],
      "stateMutability": "view",
      "type": "function"
    },
    {
      "inputs": [],
      "name": "withdraw",
      "outputs": [],
      "stateMutability": "nonpayable",
      "type": "function"
    }
  ],
  "bytecode": "0x60806040526000600b553480156200001657600080fd5b50604051620015f9380380620015f9833981016040819052620000399162000230565b600085116200008f5760405162461bcd60e51b815260206004820152601e60248201527f50726963652073686f756c642062652067726561746572207468616e2030000060448201526064015b60405180910390fd5b60008211620000e15760405162461bcd60e51b815260206004820152601d60248201527f537570706c79206d7573742062652067726561746572207468616e2030000000604482015260640162000086565b600080546001600160a01b03199081166001600160a01b03898116918217909355600188905560028781556003879055600486815560058790556006805485168787161790556007805485168e871617905560088054909416948c16949094179092556040805163313ce56760e01b815290519293919263313ce56792828101926020929190829003018186803b1580156200017c57600080fd5b505afa15801562000191573d6000803e3d6000fd5b505050506040513d601f19601f82011682018060405250810190620001b79190620002b4565b620001c39190620002f6565b620001d090600a6200041b565b620001dd8560646200042c565b620001e9878562000447565b620001f5919062000447565b62000201919062000447565b60095550620004699650505050505050565b80516001600160a01b03811681146200022b57600080fd5b919050565b600080600080600080600080610100898b0312156200024e57600080fd5b620002598962000213565b97506200026960208a0162000213565b96506200027960408a0162000213565b9550606089015194506080890151935060a0890151925060c08901519150620002a560e08a0162000213565b90509295985092959890939650565b600060208284031215620002c757600080fd5b815160ff81168114620002d957600080fd5b9392505050565b634e487b7160e01b600052601160045260246000fd5b600060ff821660ff841680821015620003135762000313620002e0565b90039392505050565b600181815b808511156200035d578160001904821115620003415762000341620002e0565b808516156200034f57918102915b93841c939080029062000321565b509250929050565b600082620003765750600162000415565b81620003855750600062000415565b81600181146200039e5760028114620003a957620003c9565b600191505062000415565b60ff841115620003bd57620003bd620002e0565b50506001821b62000415565b5060208310610133831016604e8410600b8410161715620003ee575081810a62000415565b620003fa83836200031c565b8060001904821115620004115762000411620002e0565b0290505b92915050565b6000620002d960ff84168362000365565b60008219821115620004425762000442620002e0565b500190565b6000816000190483118215151615620004645762000464620002e0565b500290565b61118080620004796000396000f3fe608060405234801561001057600080fd5b506004361061014d5760003560e01c806375312c62116100c3578063bc197c811161007c578063bc197c8114610262578063c370b0421461029a578063ea8a1af0146102ad578063f23a6e61146102b5578063f851a440146102d4578063f959553c146102e757600080fd5b806375312c621461020257806392fd22b91461022257806394f0cf7014610235578063aee120d61461023e578063b6b55f2514610246578063ba5d30781461025957600080fd5b8063363cc42711610115578063363cc427146101ac57806338e04280146101d75780633ccfd60b146101df5780635049b278146101e957806355c01345146101f157806361461954146101fa57600080fd5b806301ffc9a714610152578063047fc9aa1461017a578063200d2ed214610191578063204f83f91461019a5780632fc9629b146101a3575b600080fd5b610165610160366004610c67565b6102fa565b60405190151581526020015b60405180910390f35b61018360045481565b604051908152602001610171565b610183600b5481565b61018360035481565b61018360095481565b6008546101bf906001600160a01b031681565b6040516001600160a01b039091168152602001610171565b610183610331565b6101e76103ee565b005b6101e76104c2565b61018360025481565b6101e7610838565b610183610210366004610cb4565b600a6020526000908152604090205481565b6007546101bf906001600160a01b031681565b61018360055481565b6101e76108e3565b6101e7610254366004610ccf565b610a35565b61018360015481565b610281610270366004610e1f565b63bc197c8160e01b95945050505050565b6040516001600160e01b03199091168152602001610171565b6000546101bf906001600160a01b031681565b6101e7610b7c565b6102816102c3366004610ec9565b63f23a6e6160e01b95945050505050565b6006546101bf906001600160a01b031681565b6101836102f5366004610ccf565b610bbe565b60006001600160e01b03198216630271189760e51b148061032b57506301ffc9a760e01b6001600160e01b03198316145b92915050565b600080546040805163313ce56760e01b815290516002926001600160a01b03169163313ce567916004808301926020929190829003018186803b15801561037757600080fd5b505afa15801561038b573d6000803e3d6000fd5b505050506040513d601f19601f820116820180604052508101906103af9190610f2e565b6103b99190610f67565b6103c490600a61106e565b6002546103d290606461107d565b6001546103df9190611095565b6103e99190611095565b905090565b600280600b54146103fe57600080fd5b6000805433808352600a6020526040909220546001600160a01b0390911691829163a9059cbb919061042f90610bbe565b6040516001600160e01b031960e085901b1681526001600160a01b0390921660048301526024820152604401602060405180830381600087803b15801561047557600080fd5b505af1158015610489573d6000803e3d6000fd5b505050506040513d601f19601f820116820180604052508101906104ad91906110b4565b5050336000908152600a602052604081205550565b600180600b54146104d257600080fd5b6003544210156105295760405162461bcd60e51b815260206004820152601c60248201527f54686520626f6e6420686173206e6f74206d617475726564207965740000000060448201526064015b60405180910390fd5b6000546009546040516370a0823160e01b81523060048201526001600160a01b039092169182906370a082319060240160206040518083038186803b15801561057157600080fd5b505afa158015610585573d6000803e3d6000fd5b505050506040513d601f19601f820116820180604052508101906105a991906110d6565b146106085760405162461bcd60e51b815260206004820152602960248201527f546865206465616c20636f6e747261637420686173206e6f7420796574206265604482015268195b88199d5b99195960ba1b6064820152608401610520565b600754600854604051633f8435dd60e21b81523060048201526001600160a01b039283169290911690600090839063fe10d7749060240160206040518083038186803b15801561065757600080fd5b505afa15801561066b573d6000803e3d6000fd5b505050506040513d601f19601f8201168201806040525081019061068f91906110d6565b336000818152600a6020526040808220549051627eeac760e11b815260048101939093526024830184905292935091906001600160a01b0385169062fdd58e9060440160206040518083038186803b1580156106ea57600080fd5b505afa1580156106fe573d6000803e3d6000fd5b505050506040513d601f19601f8201168201806040525081019061072291906110d6565b61072c919061107d565b604051637a94c56560e11b815233600482015260248101849052604481018290529091506001600160a01b0384169063f5298aca90606401600060405180830381600087803b15801561077e57600080fd5b505af1158015610792573d6000803e3d6000fd5b505050506000816107a1610331565b6107ab9190611095565b60405163a9059cbb60e01b8152336004820152602481018290529091506001600160a01b0387169063a9059cbb90604401602060405180830381600087803b1580156107f657600080fd5b505af115801561080a573d6000803e3d6000fd5b505050506040513d601f19601f8201168201806040525081019061082e91906110b4565b5050505050505050565b6006546001600160a01b031633146108625760405162461bcd60e51b8152600401610520906110ef565b600080600b541461087257600080fd5b600554156108db5760405162461bcd60e51b815260206004820152603060248201527f4465616c2063616e6e6f742065786563757465206265636175736520616d6f7560448201526f06e74206c656674206973206e6f7420360841b6064820152608401610520565b506001600b55565b600180600b54146108f357600080fd5b336000908152600a60205260409020546109455760405162461bcd60e51b8152602060048201526013602482015272139bc8189bdb991cc81d1bc818dbdb1b1958dd606a1b6044820152606401610520565b60085460075460405163a22cb46560e01b81526001600160a01b0391821660048201526001602482015291169063a22cb46590604401600060405180830381600087803b15801561099557600080fd5b505af11580156109a9573d6000803e3d6000fd5b5050600754336000818152600a602052604090819020549051633c4a59fd60e01b8152600481019290925260248201526001600160a01b039091169250633c4a59fd9150604401600060405180830381600087803b158015610a0a57600080fd5b505af1158015610a1e573d6000803e3d6000fd5b5050336000908152600a6020526040812055505050565b600080600b5414610a4557600080fd5b600554821115610a975760405162461bcd60e51b815260206004820152601f60248201527f546865726520617265206e6f7420656e6f75676820626f6e6473206c656674006044820152606401610520565b6000546001600160a01b0316806323b872dd3330610ab487610bbe565b6040516001600160e01b031960e086901b1681526001600160a01b0393841660048201529290911660248301526044820152606401602060405180830381600087803b158015610b0357600080fd5b505af1158015610b17573d6000803e3d6000fd5b505050506040513d601f19601f82011682018060405250810190610b3b91906110b4565b508260056000828254610b4e9190611133565b9091555050336000908152600a602052604081208054859290610b7290849061107d565b9091555050505050565b6006546001600160a01b03163314610ba65760405162461bcd60e51b8152600401610520906110ef565b600080600b5414610bb657600080fd5b506002600b55565b60008060009054906101000a90046001600160a01b03166001600160a01b031663313ce5676040518163ffffffff1660e01b815260040160206040518083038186803b158015610c0d57600080fd5b505afa158015610c21573d6000803e3d6000fd5b505050506040513d601f19601f82011682018060405250810190610c459190610f2e565b610c5090600a61106e565b600154610c5d9084611095565b61032b9190611095565b600060208284031215610c7957600080fd5b81356001600160e01b031981168114610c9157600080fd5b9392505050565b80356001600160a01b0381168114610caf57600080fd5b919050565b600060208284031215610cc657600080fd5b610c9182610c98565b600060208284031215610ce157600080fd5b5035919050565b634e487b7160e01b600052604160045260246000fd5b604051601f8201601f1916810167ffffffffffffffff81118282101715610d2757610d27610ce8565b604052919050565b600082601f830112610d4057600080fd5b8135602067ffffffffffffffff821115610d5c57610d5c610ce8565b8160051b610d6b828201610cfe565b9283528481018201928281019087851115610d8557600080fd5b83870192505b84831015610da457823582529183019190830190610d8b565b979650505050505050565b600082601f830112610dc057600080fd5b813567ffffffffffffffff811115610dda57610dda610ce8565b610ded601f8201601f1916602001610cfe565b818152846020838601011115610e0257600080fd5b816020850160208301376000918101602001919091529392505050565b600080600080600060a08688031215610e3757600080fd5b610e4086610c98565b9450610e4e60208701610c98565b9350604086013567ffffffffffffffff80821115610e6b57600080fd5b610e7789838a01610d2f565b94506060880135915080821115610e8d57600080fd5b610e9989838a01610d2f565b93506080880135915080821115610eaf57600080fd5b50610ebc88828901610daf565b9150509295509295909350565b600080600080600060a08688031215610ee157600080fd5b610eea86610c98565b9450610ef860208701610c98565b93506040860135925060608601359150608086013567ffffffffffffffff811115610f2257600080fd5b610ebc88828901610daf565b600060208284031215610f4057600080fd5b815160ff81168114610c9157600080fd5b634e487b7160e01b600052601160045260246000fd5b600060ff821660ff841680821015610f8157610f81610f51565b90039392505050565b600181815b80851115610fc5578160001904821115610fab57610fab610f51565b80851615610fb857918102915b93841c9390800290610f8f565b509250929050565b600082610fdc5750600161032b565b81610fe95750600061032b565b8160018114610fff576002811461100957611025565b600191505061032b565b60ff84111561101a5761101a610f51565b50506001821b61032b565b5060208310610133831016604e8410600b8410161715611048575081810a61032b565b6110528383610f8a565b806000190482111561106657611066610f51565b029392505050565b6000610c9160ff841683610fcd565b6000821982111561109057611090610f51565b500190565b60008160001904831182151516156110af576110af610f51565b500290565b6000602082840312156110c657600080fd5b81518015158114610c9157600080fd5b6000602082840312156110e857600080fd5b5051919050565b60208082526024908201527f4d7573742062652061646d696e20746f2063616c6c20746869732066756e637460408201526334b7b71760e11b606082015260800190565b60008282101561114557611145610f51565b50039056fea2646970667358221220c450703d88b3defa50cc1a4b67afd17066fa33834758756fb57d5ddf3ffd9a4064736f6c63430008090033",
  "linkReferences": {},
  "deployedLinkReferences": {}
}