{
  "_format": "hh-sol-artifact-1",
  "contractName": "DealFactory",
  "sourceName": "contracts/DealFactory.sol",
  "abi": [
    {
      "inputs": [],
      "stateMutability": "nonpayable",
      "type": "constructor"
    },
    {
      "anonymous": false,
      "inputs": [
        {
          "indexed": false,
          "internalType": "address",
          "name": "dealContract",
          "type": "address"
        },
        {
          "indexed": false,
          "internalType": "address",
          "name": "denom",
          "type": "address"
        },
        {
          "indexed": false,
          "internalType": "uint256",
          "name": "principal",
          "type": "uint256"
        },
        {
          "indexed": false,
          "internalType": "uint256",
          "name": "coupon",
          "type": "uint256"
        },
        {
          "indexed": false,
          "internalType": "uint256",
          "name": "maturity",
          "type": "uint256"
        },
        {
          "indexed": false,
          "internalType": "uint256",
          "name": "supply",
          "type": "uint256"
        }
      ],
      "name": "LaunchDeal",
      "type": "event"
    },
    {
      "inputs": [
        {
          "internalType": "address",
          "name": "",
          "type": "address"
        }
      ],
      "name": "bonds",
      "outputs": [
        {
          "internalType": "uint256",
          "name": "",
          "type": "uint256"
        }
      ],
      "stateMutability": "view",
      "type": "function"
    },
    {
      "inputs": [
        {
          "internalType": "uint256",
          "name": "",
          "type": "uint256"
        }
      ],
      "name": "deals",
      "outputs": [
        {
          "internalType": "address",
          "name": "",
          "type": "address"
        }
      ],
      "stateMutability": "view",
      "type": "function"
    },
    {
      "inputs": [
        {
          "internalType": "address",
          "name": "_denom",
          "type": "address"
        },
        {
          "internalType": "uint256",
          "name": "_principal",
          "type": "uint256"
        },
        {
          "internalType": "uint256",
          "name": "_coupon",
          "type": "uint256"
        },
        {
          "internalType": "uint256",
          "name": "_maturity",
          "type": "uint256"
        },
        {
          "internalType": "uint256",
          "name": "_supply",
          "type": "uint256"
        }
      ],
      "name": "launchDeal",
      "outputs": [],
      "stateMutability": "nonpayable",
      "type": "function"
    },
    {
      "inputs": [],
      "name": "length",
      "outputs": [
        {
          "internalType": "uint256",
          "name": "",
          "type": "uint256"
        }
      ],
      "stateMutability": "view",
      "type": "function"
    },
    {
      "inputs": [],
      "name": "manager",
      "outputs": [
        {
          "internalType": "address",
          "name": "",
          "type": "address"
        }
      ],
      "stateMutability": "view",
      "type": "function"
    },
    {
      "inputs": [
        {
          "internalType": "address",
          "name": "_account",
          "type": "address"
        },
        {
          "internalType": "uint256",
          "name": "_amountPer",
          "type": "uint256"
        },
        {
          "internalType": "uint256",
          "name": "_uncollected",
          "type": "uint256"
        }
      ],
      "name": "redeemBond",
      "outputs": [],
      "stateMutability": "nonpayable",
      "type": "function"
    },
    {
      "inputs": [
        {
          "internalType": "address",
          "name": "to",
          "type": "address"
        },
        {
          "internalType": "uint256",
          "name": "amount",
          "type": "uint256"
        }
      ],
      "name": "releaseBond",
      "outputs": [],
      "stateMutability": "nonpayable",
      "type": "function"
    }
  ],
  "bytecode": "0x60a060405234801561001057600080fd5b5060405161001d9061004b565b604051809103906000f080158015610039573d6000803e3d6000fd5b506001600160a01b0316608052610058565b611f3e80611d0a83390190565b608051611c7c61008e6000396000818160f801528181610203015281816102b70152818161038201526105920152611c7c6000f3fe60806040523480156200001157600080fd5b5060043610620000875760003560e01c8063481c6a751162000062578063481c6a7514620000f2578063cb7eb689146200011a578063d9a973bd1462000131578063fe10d774146200014857600080fd5b806303988f84146200008c5780631f7b6d3214620000c05780633c4a59fd14620000d9575b600080fd5b620000a36200009d366004620006ff565b6200016b565b6040516001600160a01b0390911681526020015b60405180910390f35b620000ca60025481565b604051908152602001620000b7565b620000f0620000ea36600462000732565b62000196565b005b620000a37f000000000000000000000000000000000000000000000000000000000000000081565b620000f06200012b36600462000761565b62000265565b620000f06200014236600462000799565b620004f7565b620000ca62000159366004620007e0565b60006020819052908152604090205481565b600181815481106200017c57600080fd5b6000918252602090912001546001600160a01b0316905081565b33600090815260208190526040902054620001b057600080fd5b33600090815260208190526040808220549051637921219560e11b81523060048201526001600160a01b03858116602483015260448201929092526064810184905260a0608482015260a48101929092527f0000000000000000000000000000000000000000000000000000000000000000169063f242432a9060c401600060405180830381600087803b1580156200024857600080fd5b505af11580156200025d573d6000803e3d6000fd5b505050505050565b336000908152602081905260409020546200027f57600080fd5b33600090815260208190526040808220549051627eeac760e11b81526001600160a01b038681166004830152602482019290925283917f0000000000000000000000000000000000000000000000000000000000000000169062fdd58e9060440160206040518083038186803b158015620002f957600080fd5b505afa1580156200030e573d6000803e3d6000fd5b505050506040513d601f19601f8201168201806040525081019062000334919062000807565b62000340919062000837565b3360009081526020819052604090819020549051637a94c56560e11b81526001600160a01b0387811660048301526024820192909252604481018390529192507f0000000000000000000000000000000000000000000000000000000000000000169063f5298aca90606401600060405180830381600087803b158015620003c757600080fd5b505af1158015620003dc573d6000803e3d6000fd5b505050506000336001600160a01b031663c370b0426040518163ffffffff1660e01b815260040160206040518083038186803b1580156200041c57600080fd5b505afa15801562000431573d6000803e3d6000fd5b505050506040513d601f19601f8201168201806040525081019062000457919062000852565b90506001600160a01b03811663a9059cbb3362000475878662000872565b6040516001600160e01b031960e085901b1681526001600160a01b0390921660048301526024820152604401602060405180830381600087803b158015620004bc57600080fd5b505af1158015620004d1573d6000803e3d6000fd5b505050506040513d601f19601f820116820180604052508101906200025d919062000894565b6000308686868686336040516200050e90620006f1565b6001600160a01b039788168152958716602087015260408601949094526060850192909252608084015260a083015290911660c082015260e001604051809103906000f08015801562000565573d6000803e3d6000fd5b506040516340c10f1960e01b81526001600160a01b038083166004830152602482018590529192506000917f000000000000000000000000000000000000000000000000000000000000000016906340c10f1990604401602060405180830381600087803b158015620005d757600080fd5b505af1158015620005ec573d6000803e3d6000fd5b505050506040513d601f19601f8201168201806040525081019062000612919062000807565b6001600160a01b03831660008181526020819052604081208390556001805480820182558183527fb10e2d527612073b26eecdfd717e6a320cf44b4afac2b0732d9fcbe2b7fa0cf60180546001600160a01b0319169093179092556002805493945091926200068390849062000837565b9091555050604080516001600160a01b03808516825289166020820152908101879052606081018690526080810185905260a081018490527f561faa1c4d603a597e533cc2d00e3c12bbb28cf985d53307a6a9ecde735768739060c00160405180910390a150505050505050565b61138e80620008b983390190565b6000602082840312156200071257600080fd5b5035919050565b6001600160a01b03811681146200072f57600080fd5b50565b600080604083850312156200074657600080fd5b8235620007538162000719565b946020939093013593505050565b6000806000606084860312156200077757600080fd5b8335620007848162000719565b95602085013595506040909401359392505050565b600080600080600060a08688031215620007b257600080fd5b8535620007bf8162000719565b97602087013597506040870135966060810135965060800135945092505050565b600060208284031215620007f357600080fd5b8135620008008162000719565b9392505050565b6000602082840312156200081a57600080fd5b5051919050565b634e487b7160e01b600052601160045260246000fd5b600082198211156200084d576200084d62000821565b500190565b6000602082840312156200086557600080fd5b8151620008008162000719565b60008160001904831182151516156200088f576200088f62000821565b500290565b600060208284031215620008a757600080fd5b815180151581146200080057600080fdfe60806040526000600a553480156200001657600080fd5b506040516200138e3803806200138e833981016040819052620000399162000217565b600085116200008f5760405162461bcd60e51b815260206004820152601e60248201527f50726963652073686f756c642062652067726561746572207468616e2030000060448201526064015b60405180910390fd5b60008211620000e15760405162461bcd60e51b815260206004820152601d60248201527f537570706c79206d7573742062652067726561746572207468616e2030000000604482015260640162000086565b600080546001600160a01b038089166001600160a01b03199283168117909355600188905560028781556003879055600486815560058790556006805487851690861617905560078054938d1693909416929092179092556040805163313ce56760e01b8152905192939263313ce56792828101926020929190829003018186803b1580156200017057600080fd5b505afa15801562000185573d6000803e3d6000fd5b505050506040513d601f19601f82011682018060405250810190620001ab919062000288565b620001b79190620002ca565b620001c490600a620003ef565b620001d185606462000400565b620001dd90876200041b565b620001e991906200041b565b600855506200043d95505050505050565b80516001600160a01b03811681146200021257600080fd5b919050565b600080600080600080600060e0888a0312156200023357600080fd5b6200023e88620001fa565b96506200024e60208901620001fa565b955060408801519450606088015193506080880151925060a088015191506200027a60c08901620001fa565b905092959891949750929550565b6000602082840312156200029b57600080fd5b815160ff81168114620002ad57600080fd5b9392505050565b634e487b7160e01b600052601160045260246000fd5b600060ff821660ff841680821015620002e757620002e7620002b4565b90039392505050565b600181815b8085111562000331578160001904821115620003155762000315620002b4565b808516156200032357918102915b93841c9390800290620002f5565b509250929050565b6000826200034a57506001620003e9565b816200035957506000620003e9565b81600181146200037257600281146200037d576200039d565b6001915050620003e9565b60ff841115620003915762000391620002b4565b50506001821b620003e9565b5060208310610133831016604e8410600b8410161715620003c2575081810a620003e9565b620003ce8383620002f0565b8060001904821115620003e557620003e5620002b4565b0290505b92915050565b6000620002ad60ff84168362000339565b60008219821115620004165762000416620002b4565b500190565b6000816000190483118215151615620004385762000438620002b4565b500290565b610f41806200044d6000396000f3fe608060405234801561001057600080fd5b50600436106101375760003560e01c806375312c62116100b8578063bc197c811161007c578063bc197c811461020e578063c370b04214610246578063ea8a1af014610271578063f23a6e6114610279578063f851a44014610298578063f959553c146102ab57600080fd5b806375312c62146101c157806394f0cf70146101e1578063aee120d6146101ea578063b6b55f25146101f2578063ba5d30781461020557600080fd5b806338e04280116100ff57806338e04280146101965780633ccfd60b1461019e5780635049b278146101a857806355c01345146101b057806361461954146101b957600080fd5b806301ffc9a71461013c578063047fc9aa14610164578063200d2ed21461017b578063204f83f9146101845780632fc9629b1461018d575b600080fd5b61014f61014a366004610a28565b6102be565b60405190151581526020015b60405180910390f35b61016d60045481565b60405190815260200161015b565b61016d600a5481565b61016d60035481565b61016d60085481565b61016d6102f5565b6101a66103b2565b005b6101a6610486565b61016d60025481565b6101a6610661565b61016d6101cf366004610a75565b60096020526000908152604090205481565b61016d60055481565b6101a661070c565b6101a6610200366004610a90565b6107f6565b61016d60015481565b61022d61021c366004610be0565b63bc197c8160e01b95945050505050565b6040516001600160e01b0319909116815260200161015b565b600054610259906001600160a01b031681565b6040516001600160a01b03909116815260200161015b565b6101a661093d565b61022d610287366004610c8a565b63f23a6e6160e01b95945050505050565b600654610259906001600160a01b031681565b61016d6102b9366004610a90565b61097f565b60006001600160e01b03198216630271189760e51b14806102ef57506301ffc9a760e01b6001600160e01b03198316145b92915050565b600080546040805163313ce56760e01b815290516002926001600160a01b03169163313ce567916004808301926020929190829003018186803b15801561033b57600080fd5b505afa15801561034f573d6000803e3d6000fd5b505050506040513d601f19601f820116820180604052508101906103739190610cef565b61037d9190610d28565b61038890600a610e2f565b600254610396906064610e3e565b6001546103a39190610e56565b6103ad9190610e56565b905090565b600280600a54146103c257600080fd5b600080543380835260096020526040909220546001600160a01b0390911691829163a9059cbb91906103f39061097f565b6040516001600160e01b031960e085901b1681526001600160a01b0390921660048301526024820152604401602060405180830381600087803b15801561043957600080fd5b505af115801561044d573d6000803e3d6000fd5b505050506040513d601f19601f820116820180604052508101906104719190610e75565b50503360009081526009602052604081205550565b600180600a541461049657600080fd5b6003544210156104ed5760405162461bcd60e51b815260206004820152601c60248201527f54686520626f6e6420686173206e6f74206d617475726564207965740000000060448201526064015b60405180910390fd5b6000546008546040516370a0823160e01b81523060048201526001600160a01b039092169182906370a082319060240160206040518083038186803b15801561053557600080fd5b505afa158015610549573d6000803e3d6000fd5b505050506040513d601f19601f8201168201806040525081019061056d9190610e97565b146105cc5760405162461bcd60e51b815260206004820152602960248201527f546865206465616c20636f6e747261637420686173206e6f7420796574206265604482015268195b88199d5b99195960ba1b60648201526084016104e4565b6007546001600160a01b031663cb7eb689336105e66102f5565b336000908152600960205260409081902054905160e085901b6001600160e01b03191681526001600160a01b03909316600484015260248301919091526044820152606401600060405180830381600087803b15801561064557600080fd5b505af1158015610659573d6000803e3d6000fd5b505050505050565b6006546001600160a01b0316331461068b5760405162461bcd60e51b81526004016104e490610eb0565b600080600a541461069b57600080fd5b600554156107045760405162461bcd60e51b815260206004820152603060248201527f4465616c2063616e6e6f742065786563757465206265636175736520616d6f7560448201526f06e74206c656674206973206e6f7420360841b60648201526084016104e4565b506001600a55565b600180600a541461071c57600080fd5b3360009081526009602052604090205461076e5760405162461bcd60e51b8152602060048201526013602482015272139bc8189bdb991cc81d1bc818dbdb1b1958dd606a1b60448201526064016104e4565b6007543360008181526009602052604090819020549051633c4a59fd60e01b8152600481019290925260248201526001600160a01b0390911690633c4a59fd90604401600060405180830381600087803b1580156107cb57600080fd5b505af11580156107df573d6000803e3d6000fd5b505033600090815260096020526040812055505050565b600080600a541461080657600080fd5b6005548211156108585760405162461bcd60e51b815260206004820152601f60248201527f546865726520617265206e6f7420656e6f75676820626f6e6473206c6566740060448201526064016104e4565b6000546001600160a01b0316806323b872dd33306108758761097f565b6040516001600160e01b031960e086901b1681526001600160a01b0393841660048201529290911660248301526044820152606401602060405180830381600087803b1580156108c457600080fd5b505af11580156108d8573d6000803e3d6000fd5b505050506040513d601f19601f820116820180604052508101906108fc9190610e75565b50826005600082825461090f9190610ef4565b90915550503360009081526009602052604081208054859290610933908490610e3e565b9091555050505050565b6006546001600160a01b031633146109675760405162461bcd60e51b81526004016104e490610eb0565b600080600a541461097757600080fd5b506002600a55565b60008060009054906101000a90046001600160a01b03166001600160a01b031663313ce5676040518163ffffffff1660e01b815260040160206040518083038186803b1580156109ce57600080fd5b505afa1580156109e2573d6000803e3d6000fd5b505050506040513d601f19601f82011682018060405250810190610a069190610cef565b610a1190600a610e2f565b600154610a1e9084610e56565b6102ef9190610e56565b600060208284031215610a3a57600080fd5b81356001600160e01b031981168114610a5257600080fd5b9392505050565b80356001600160a01b0381168114610a7057600080fd5b919050565b600060208284031215610a8757600080fd5b610a5282610a59565b600060208284031215610aa257600080fd5b5035919050565b634e487b7160e01b600052604160045260246000fd5b604051601f8201601f1916810167ffffffffffffffff81118282101715610ae857610ae8610aa9565b604052919050565b600082601f830112610b0157600080fd5b8135602067ffffffffffffffff821115610b1d57610b1d610aa9565b8160051b610b2c828201610abf565b9283528481018201928281019087851115610b4657600080fd5b83870192505b84831015610b6557823582529183019190830190610b4c565b979650505050505050565b600082601f830112610b8157600080fd5b813567ffffffffffffffff811115610b9b57610b9b610aa9565b610bae601f8201601f1916602001610abf565b818152846020838601011115610bc357600080fd5b816020850160208301376000918101602001919091529392505050565b600080600080600060a08688031215610bf857600080fd5b610c0186610a59565b9450610c0f60208701610a59565b9350604086013567ffffffffffffffff80821115610c2c57600080fd5b610c3889838a01610af0565b94506060880135915080821115610c4e57600080fd5b610c5a89838a01610af0565b93506080880135915080821115610c7057600080fd5b50610c7d88828901610b70565b9150509295509295909350565b600080600080600060a08688031215610ca257600080fd5b610cab86610a59565b9450610cb960208701610a59565b93506040860135925060608601359150608086013567ffffffffffffffff811115610ce357600080fd5b610c7d88828901610b70565b600060208284031215610d0157600080fd5b815160ff81168114610a5257600080fd5b634e487b7160e01b600052601160045260246000fd5b600060ff821660ff841680821015610d4257610d42610d12565b90039392505050565b600181815b80851115610d86578160001904821115610d6c57610d6c610d12565b80851615610d7957918102915b93841c9390800290610d50565b509250929050565b600082610d9d575060016102ef565b81610daa575060006102ef565b8160018114610dc05760028114610dca57610de6565b60019150506102ef565b60ff841115610ddb57610ddb610d12565b50506001821b6102ef565b5060208310610133831016604e8410600b8410161715610e09575081810a6102ef565b610e138383610d4b565b8060001904821115610e2757610e27610d12565b029392505050565b6000610a5260ff841683610d8e565b60008219821115610e5157610e51610d12565b500190565b6000816000190483118215151615610e7057610e70610d12565b500290565b600060208284031215610e8757600080fd5b81518015158114610a5257600080fd5b600060208284031215610ea957600080fd5b5051919050565b60208082526024908201527f4d7573742062652061646d696e20746f2063616c6c20746869732066756e637460408201526334b7b71760e11b606082015260800190565b600082821015610f0657610f06610d12565b50039056fea2646970667358221220d633673c1e6da61b938e7622e861dd7cb5d48dad401f9399ffb196bbc813c44c64736f6c63430008090033a26469706673582212205feeffab85f203ac4653b67364c57e55785e3726c8c3f6f8deb4ef2f3a0cf1da64736f6c6343000809003360806040523480156200001157600080fd5b506040805160208101909152600081526200002c816200003e565b50620000383362000057565b6200018c565b805162000053906002906020840190620000a9565b5050565b600380546001600160a01b038381166001600160a01b0319831681179093556040519116919082907f8be0079c531659141344cd1fd0a4f28419497f9722a3daafe3b4186f6b6457e090600090a35050565b828054620000b7906200014f565b90600052602060002090601f016020900481019282620000db576000855562000126565b82601f10620000f657805160ff191683800117855562000126565b8280016001018555821562000126579182015b828111156200012657825182559160200191906001019062000109565b506200013492915062000138565b5090565b5b8082111562000134576000815560010162000139565b600181811c908216806200016457607f821691505b602082108114156200018657634e487b7160e01b600052602260045260246000fd5b50919050565b611da2806200019c6000396000f3fe608060405234801561001057600080fd5b50600436106100ff5760003560e01c8063715018a611610097578063e985e9c511610066578063e985e9c514610240578063f242432a1461027c578063f2fde38b1461028f578063f5298aca146102a257600080fd5b8063715018a6146101ea5780638da5cb5b146101f2578063a22cb4651461020d578063bd85b0391461022057600080fd5b806340c10f19116100d357806340c10f19146101825780634e1273f4146101955780634f558e79146101b55780636b20c454146101d757600080fd5b8062fdd58e1461010457806301ffc9a71461012a5780630e89341c1461014d5780632eb2c2d61461016d575b600080fd5b6101176101123660046113c8565b6102b5565b6040519081526020015b60405180910390f35b61013d610138366004611408565b61034b565b6040519015158152602001610121565b61016061015b36600461142c565b61039d565b6040516101219190611492565b61018061017b3660046115f1565b610431565b005b6101176101903660046113c8565b61047d565b6101a86101a336600461169b565b6104c8565b60405161012191906117a1565b61013d6101c336600461142c565b600090815260046020526040902054151590565b6101806101e53660046117b4565b6105f2565b61018061063a565b6003546040516001600160a01b039091168152602001610121565b61018061021b366004611828565b61064e565b61011761022e36600461142c565b60009081526004602052604090205490565b61013d61024e366004611864565b6001600160a01b03918216600090815260016020908152604080832093909416825291909152205460ff1690565b61018061028a366004611897565b61065d565b61018061029d3660046118fc565b6106a2565b6101806102b0366004611917565b61071b565b60006001600160a01b0383166103255760405162461bcd60e51b815260206004820152602a60248201527f455243313135353a2061646472657373207a65726f206973206e6f742061207660448201526930b634b21037bbb732b960b11b60648201526084015b60405180910390fd5b506000908152602081815260408083206001600160a01b03949094168352929052205490565b60006001600160e01b03198216636cdb3d1360e11b148061037c57506001600160e01b031982166303a24d0760e21b145b8061039757506301ffc9a760e01b6001600160e01b03198316145b92915050565b6060600280546103ac9061194a565b80601f01602080910402602001604051908101604052809291908181526020018280546103d89061194a565b80156104255780601f106103fa57610100808354040283529160200191610425565b820191906000526020600020905b81548152906001019060200180831161040857829003601f168201915b50505050509050919050565b6001600160a01b03851633148061044d575061044d853361024e565b6104695760405162461bcd60e51b815260040161031c90611985565b610476858585858561075e565b5050505050565b6000610487610908565b60016005600082825461049a91906119e9565b925050819055506104be836005548460405180602001604052806000815250610962565b5060055492915050565b6060815183511461052d5760405162461bcd60e51b815260206004820152602960248201527f455243313135353a206163636f756e747320616e6420696473206c656e677468604482015268040dad2e6dac2e8c6d60bb1b606482015260840161031c565b6000835167ffffffffffffffff811115610549576105496114a5565b604051908082528060200260200182016040528015610572578160200160208202803683370190505b50905060005b84518110156105ea576105bd85828151811061059657610596611a01565b60200260200101518583815181106105b0576105b0611a01565b60200260200101516102b5565b8282815181106105cf576105cf611a01565b60209081029190910101526105e381611a17565b9050610578565b509392505050565b6001600160a01b03831633148061060e575061060e833361024e565b61062a5760405162461bcd60e51b815260040161031c90611985565b610635838383610a85565b505050565b610642610908565b61064c6000610c22565b565b610659338383610c74565b5050565b6001600160a01b0385163314806106795750610679853361024e565b6106955760405162461bcd60e51b815260040161031c90611985565b6104768585858585610d55565b6106aa610908565b6001600160a01b03811661070f5760405162461bcd60e51b815260206004820152602660248201527f4f776e61626c653a206e6577206f776e657220697320746865207a65726f206160448201526564647265737360d01b606482015260840161031c565b61071881610c22565b50565b6001600160a01b0383163314806107375750610737833361024e565b6107535760405162461bcd60e51b815260040161031c90611985565b610635838383610e8d565b815183511461077f5760405162461bcd60e51b815260040161031c90611a32565b6001600160a01b0384166107a55760405162461bcd60e51b815260040161031c90611a7a565b336107b4818787878787610fa5565b60005b845181101561089a5760008582815181106107d4576107d4611a01565b6020026020010151905060008583815181106107f2576107f2611a01565b602090810291909101810151600084815280835260408082206001600160a01b038e1683529093529190912054909150818110156108425760405162461bcd60e51b815260040161031c90611abf565b6000838152602081815260408083206001600160a01b038e8116855292528083208585039055908b1682528120805484929061087f9084906119e9565b925050819055505050508061089390611a17565b90506107b7565b50846001600160a01b0316866001600160a01b0316826001600160a01b03167f4a39dc06d4c0dbc64b70af90fd698a233a518aa5d07e595d983b8c0526c8f7fb87876040516108ea929190611b09565b60405180910390a4610900818787878787610fb3565b505050505050565b6003546001600160a01b0316331461064c5760405162461bcd60e51b815260206004820181905260248201527f4f776e61626c653a2063616c6c6572206973206e6f7420746865206f776e6572604482015260640161031c565b6001600160a01b0384166109c25760405162461bcd60e51b815260206004820152602160248201527f455243313135353a206d696e7420746f20746865207a65726f206164647265736044820152607360f81b606482015260840161031c565b3360006109ce8561111e565b905060006109db8561111e565b90506109ec83600089858589610fa5565b6000868152602081815260408083206001600160a01b038b16845290915281208054879290610a1c9084906119e9565b909155505060408051878152602081018790526001600160a01b03808a1692600092918716917fc3d58168c5ae7397731d063d5bbf3d657854427343f4c083240f7aacaa2d0f62910160405180910390a4610a7c83600089898989611169565b50505050505050565b6001600160a01b038316610aab5760405162461bcd60e51b815260040161031c90611b37565b8051825114610acc5760405162461bcd60e51b815260040161031c90611a32565b6000339050610aef81856000868660405180602001604052806000815250610fa5565b60005b8351811015610bb4576000848281518110610b0f57610b0f611a01565b602002602001015190506000848381518110610b2d57610b2d611a01565b602090810291909101810151600084815280835260408082206001600160a01b038c168352909352919091205490915081811015610b7d5760405162461bcd60e51b815260040161031c90611b7a565b6000928352602083815260408085206001600160a01b038b1686529091529092209103905580610bac81611a17565b915050610af2565b5060006001600160a01b0316846001600160a01b0316826001600160a01b03167f4a39dc06d4c0dbc64b70af90fd698a233a518aa5d07e595d983b8c0526c8f7fb8686604051610c05929190611b09565b60405180910390a460408051602081019091526000905250505050565b600380546001600160a01b038381166001600160a01b0319831681179093556040519116919082907f8be0079c531659141344cd1fd0a4f28419497f9722a3daafe3b4186f6b6457e090600090a35050565b816001600160a01b0316836001600160a01b03161415610ce85760405162461bcd60e51b815260206004820152602960248201527f455243313135353a2073657474696e6720617070726f76616c20737461747573604482015268103337b91039b2b63360b91b606482015260840161031c565b6001600160a01b03838116600081815260016020908152604080832094871680845294825291829020805460ff191686151590811790915591519182527f17307eab39ab6107e8899845ad3d59bd9653f200f220920489ca2b5937696c31910160405180910390a3505050565b6001600160a01b038416610d7b5760405162461bcd60e51b815260040161031c90611a7a565b336000610d878561111e565b90506000610d948561111e565b9050610da4838989858589610fa5565b6000868152602081815260408083206001600160a01b038c16845290915290205485811015610de55760405162461bcd60e51b815260040161031c90611abf565b6000878152602081815260408083206001600160a01b038d8116855292528083208985039055908a16825281208054889290610e229084906119e9565b909155505060408051888152602081018890526001600160a01b03808b16928c821692918816917fc3d58168c5ae7397731d063d5bbf3d657854427343f4c083240f7aacaa2d0f62910160405180910390a4610e82848a8a8a8a8a611169565b505050505050505050565b6001600160a01b038316610eb35760405162461bcd60e51b815260040161031c90611b37565b336000610ebf8461111e565b90506000610ecc8461111e565b9050610eec83876000858560405180602001604052806000815250610fa5565b6000858152602081815260408083206001600160a01b038a16845290915290205484811015610f2d5760405162461bcd60e51b815260040161031c90611b7a565b6000868152602081815260408083206001600160a01b038b81168086529184528285208a8703905582518b81529384018a90529092908816917fc3d58168c5ae7397731d063d5bbf3d657854427343f4c083240f7aacaa2d0f62910160405180910390a4604080516020810190915260009052610a7c565b610900868686868686611233565b6001600160a01b0384163b156109005760405163bc197c8160e01b81526001600160a01b0385169063bc197c8190610ff79089908990889088908890600401611bbe565b602060405180830381600087803b15801561101157600080fd5b505af1925050508015611041575060408051601f3d908101601f1916820190925261103e91810190611c1c565b60015b6110ee5761104d611c39565b806308c379a014156110875750611062611c55565b8061106d5750611089565b8060405162461bcd60e51b815260040161031c9190611492565b505b60405162461bcd60e51b815260206004820152603460248201527f455243313135353a207472616e7366657220746f206e6f6e2d455243313135356044820152732932b1b2b4bb32b91034b6b83632b6b2b73a32b960611b606482015260840161031c565b6001600160e01b0319811663bc197c8160e01b14610a7c5760405162461bcd60e51b815260040161031c90611cdf565b6040805160018082528183019092526060916000919060208083019080368337019050509050828160008151811061115857611158611a01565b602090810291909101015292915050565b6001600160a01b0384163b156109005760405163f23a6e6160e01b81526001600160a01b0385169063f23a6e61906111ad9089908990889088908890600401611d27565b602060405180830381600087803b1580156111c757600080fd5b505af19250505080156111f7575060408051601f3d908101601f191682019092526111f491810190611c1c565b60015b6112035761104d611c39565b6001600160e01b0319811663f23a6e6160e01b14610a7c5760405162461bcd60e51b815260040161031c90611cdf565b6001600160a01b0385166112ba5760005b83518110156112b85782818151811061125f5761125f611a01565b60200260200101516004600086848151811061127d5761127d611a01565b6020026020010151815260200190815260200160002060008282546112a291906119e9565b909155506112b1905081611a17565b9050611244565b505b6001600160a01b0384166109005760005b8351811015610a7c5760008482815181106112e8576112e8611a01565b60200260200101519050600084838151811061130657611306611a01565b60200260200101519050600060046000848152602001908152602001600020549050818110156113895760405162461bcd60e51b815260206004820152602860248201527f455243313135353a206275726e20616d6f756e74206578636565647320746f74604482015267616c537570706c7960c01b606482015260840161031c565b600092835260046020526040909220910390556113a581611a17565b90506112cb565b80356001600160a01b03811681146113c357600080fd5b919050565b600080604083850312156113db57600080fd5b6113e4836113ac565b946020939093013593505050565b6001600160e01b03198116811461071857600080fd5b60006020828403121561141a57600080fd5b8135611425816113f2565b9392505050565b60006020828403121561143e57600080fd5b5035919050565b6000815180845260005b8181101561146b5760208185018101518683018201520161144f565b8181111561147d576000602083870101525b50601f01601f19169290920160200192915050565b6020815260006114256020830184611445565b634e487b7160e01b600052604160045260246000fd5b601f8201601f1916810167ffffffffffffffff811182821017156114e1576114e16114a5565b6040525050565b600067ffffffffffffffff821115611502576115026114a5565b5060051b60200190565b600082601f83011261151d57600080fd5b8135602061152a826114e8565b60405161153782826114bb565b83815260059390931b850182019282810191508684111561155757600080fd5b8286015b84811015611572578035835291830191830161155b565b509695505050505050565b600082601f83011261158e57600080fd5b813567ffffffffffffffff8111156115a8576115a86114a5565b6040516115bf601f8301601f1916602001826114bb565b8181528460208386010111156115d457600080fd5b816020850160208301376000918101602001919091529392505050565b600080600080600060a0868803121561160957600080fd5b611612866113ac565b9450611620602087016113ac565b9350604086013567ffffffffffffffff8082111561163d57600080fd5b61164989838a0161150c565b9450606088013591508082111561165f57600080fd5b61166b89838a0161150c565b9350608088013591508082111561168157600080fd5b5061168e8882890161157d565b9150509295509295909350565b600080604083850312156116ae57600080fd5b823567ffffffffffffffff808211156116c657600080fd5b818501915085601f8301126116da57600080fd5b813560206116e7826114e8565b6040516116f482826114bb565b83815260059390931b850182019282810191508984111561171457600080fd5b948201945b838610156117395761172a866113ac565b82529482019490820190611719565b9650508601359250508082111561174f57600080fd5b5061175c8582860161150c565b9150509250929050565b600081518084526020808501945080840160005b838110156117965781518752958201959082019060010161177a565b509495945050505050565b6020815260006114256020830184611766565b6000806000606084860312156117c957600080fd5b6117d2846113ac565b9250602084013567ffffffffffffffff808211156117ef57600080fd5b6117fb8783880161150c565b9350604086013591508082111561181157600080fd5b5061181e8682870161150c565b9150509250925092565b6000806040838503121561183b57600080fd5b611844836113ac565b91506020830135801515811461185957600080fd5b809150509250929050565b6000806040838503121561187757600080fd5b611880836113ac565b915061188e602084016113ac565b90509250929050565b600080600080600060a086880312156118af57600080fd5b6118b8866113ac565b94506118c6602087016113ac565b93506040860135925060608601359150608086013567ffffffffffffffff8111156118f057600080fd5b61168e8882890161157d565b60006020828403121561190e57600080fd5b611425826113ac565b60008060006060848603121561192c57600080fd5b611935846113ac565b95602085013595506040909401359392505050565b600181811c9082168061195e57607f821691505b6020821081141561197f57634e487b7160e01b600052602260045260246000fd5b50919050565b6020808252602e908201527f455243313135353a2063616c6c6572206973206e6f7420746f6b656e206f776e60408201526d195c881bdc88185c1c1c9bdd995960921b606082015260800190565b634e487b7160e01b600052601160045260246000fd5b600082198211156119fc576119fc6119d3565b500190565b634e487b7160e01b600052603260045260246000fd5b6000600019821415611a2b57611a2b6119d3565b5060010190565b60208082526028908201527f455243313135353a2069647320616e6420616d6f756e7473206c656e677468206040820152670dad2e6dac2e8c6d60c31b606082015260800190565b60208082526025908201527f455243313135353a207472616e7366657220746f20746865207a65726f206164604082015264647265737360d81b606082015260800190565b6020808252602a908201527f455243313135353a20696e73756666696369656e742062616c616e636520666f60408201526939103a3930b739b332b960b11b606082015260800190565b604081526000611b1c6040830185611766565b8281036020840152611b2e8185611766565b95945050505050565b60208082526023908201527f455243313135353a206275726e2066726f6d20746865207a65726f206164647260408201526265737360e81b606082015260800190565b60208082526024908201527f455243313135353a206275726e20616d6f756e7420657863656564732062616c604082015263616e636560e01b606082015260800190565b6001600160a01b0386811682528516602082015260a060408201819052600090611bea90830186611766565b8281036060840152611bfc8186611766565b90508281036080840152611c108185611445565b98975050505050505050565b600060208284031215611c2e57600080fd5b8151611425816113f2565b600060033d1115611c525760046000803e5060005160e01c5b90565b600060443d1015611c635790565b6040516003193d81016004833e81513d67ffffffffffffffff8160248401118184111715611c9357505050505090565b8285019150815181811115611cab5750505050505090565b843d8701016020828501011115611cc55750505050505090565b611cd4602082860101876114bb565b509095945050505050565b60208082526028908201527f455243313135353a204552433131353552656365697665722072656a656374656040820152676420746f6b656e7360c01b606082015260800190565b6001600160a01b03868116825285166020820152604081018490526060810183905260a060808201819052600090611d6190830184611445565b97965050505050505056fea2646970667358221220931276e15df907587427ff7fb2c91bac4c661c5818cfa53d2d0437a10c2073cb64736f6c63430008090033",
  "linkReferences": {},
  "deployedLinkReferences": {}
}