{
  "_format": "hh-sol-artifact-1",
  "contractName": "DealFactory",
  "sourceName": "contracts/DealFactory.sol",
  "abi": [
    {
      "inputs": [],
      "stateMutability": "nonpayable",
      "type": "constructor"
    },
    {
      "anonymous": false,
      "inputs": [
        {
          "indexed": false,
          "internalType": "address",
          "name": "dealContract",
          "type": "address"
        },
        {
          "indexed": false,
          "internalType": "address",
          "name": "denom",
          "type": "address"
        },
        {
          "indexed": false,
          "internalType": "uint256",
          "name": "principal",
          "type": "uint256"
        },
        {
          "indexed": false,
          "internalType": "uint256",
          "name": "coupon",
          "type": "uint256"
        },
        {
          "indexed": false,
          "internalType": "uint256",
          "name": "maturity",
          "type": "uint256"
        },
        {
          "indexed": false,
          "internalType": "uint256",
          "name": "supply",
          "type": "uint256"
        }
      ],
      "name": "LaunchDeal",
      "type": "event"
    },
    {
      "inputs": [
        {
          "internalType": "address",
          "name": "",
          "type": "address"
        }
      ],
      "name": "bonds",
      "outputs": [
        {
          "internalType": "uint256",
          "name": "",
          "type": "uint256"
        }
      ],
      "stateMutability": "view",
      "type": "function"
    },
    {
      "inputs": [
        {
          "internalType": "address",
          "name": "_denom",
          "type": "address"
        },
        {
          "internalType": "uint256",
          "name": "_principal",
          "type": "uint256"
        },
        {
          "internalType": "uint256",
          "name": "_coupon",
          "type": "uint256"
        },
        {
          "internalType": "uint256",
          "name": "_maturity",
          "type": "uint256"
        },
        {
          "internalType": "uint256",
          "name": "_supply",
          "type": "uint256"
        }
      ],
      "name": "launchDeal",
      "outputs": [],
      "stateMutability": "nonpayable",
      "type": "function"
    },
    {
      "inputs": [],
      "name": "manager",
      "outputs": [
        {
          "internalType": "address",
          "name": "",
          "type": "address"
        }
      ],
      "stateMutability": "view",
      "type": "function"
    },
    {
      "inputs": [
        {
          "internalType": "address",
          "name": "_account",
          "type": "address"
        },
        {
          "internalType": "uint256",
          "name": "_amountPer",
          "type": "uint256"
        },
        {
          "internalType": "uint256",
          "name": "_uncollected",
          "type": "uint256"
        }
      ],
      "name": "redeemBond",
      "outputs": [],
      "stateMutability": "nonpayable",
      "type": "function"
    },
    {
      "inputs": [
        {
          "internalType": "address",
          "name": "to",
          "type": "address"
        },
        {
          "internalType": "uint256",
          "name": "amount",
          "type": "uint256"
        }
      ],
      "name": "releaseBond",
      "outputs": [],
      "stateMutability": "nonpayable",
      "type": "function"
    }
  ],
  "bytecode": "0x60a060405234801561001057600080fd5b5060405161001d9061004b565b604051809103906000f080158015610039573d6000803e3d6000fd5b506001600160a01b0316608052610058565b611f3c80611aa883390190565b608051611a1a61008e6000396000818160760152818161017501528181610226015281816102eb01526104ec0152611a1a6000f3fe608060405234801561001057600080fd5b50600436106100575760003560e01c80633c4a59fd1461005c578063481c6a7514610071578063cb7eb689146100b5578063d9a973bd146100c8578063fe10d774146100db575b600080fd5b61006f61006a36600461060e565b610109565b005b6100987f000000000000000000000000000000000000000000000000000000000000000081565b6040516001600160a01b0390911681526020015b60405180910390f35b61006f6100c336600461063a565b6101d5565b61006f6100d636600461066f565b610454565b6100fb6100e93660046106b3565b60006020819052908152604090205481565b6040519081526020016100ac565b3360009081526020819052604090205461012257600080fd5b33600090815260208190526040808220549051637921219560e11b81523060048201526001600160a01b03858116602483015260448201929092526064810184905260a0608482015260a48101929092527f0000000000000000000000000000000000000000000000000000000000000000169063f242432a9060c401600060405180830381600087803b1580156101b957600080fd5b505af11580156101cd573d6000803e3d6000fd5b505050505050565b336000908152602081905260409020546101ee57600080fd5b33600090815260208190526040808220549051627eeac760e11b81526001600160a01b038681166004830152602482019290925283917f0000000000000000000000000000000000000000000000000000000000000000169062fdd58e9060440160206040518083038186803b15801561026757600080fd5b505afa15801561027b573d6000803e3d6000fd5b505050506040513d601f19601f8201168201806040525081019061029f91906106d7565b6102a99190610706565b3360009081526020819052604090819020549051637a94c56560e11b81526001600160a01b0387811660048301526024820192909252604481018390529192507f0000000000000000000000000000000000000000000000000000000000000000169063f5298aca90606401600060405180830381600087803b15801561032f57600080fd5b505af1158015610343573d6000803e3d6000fd5b505050506000336001600160a01b031663c370b0426040518163ffffffff1660e01b815260040160206040518083038186803b15801561038257600080fd5b505afa158015610396573d6000803e3d6000fd5b505050506040513d601f19601f820116820180604052508101906103ba919061071e565b90506001600160a01b03811663a9059cbb336103d6878661073b565b6040516001600160e01b031960e085901b1681526001600160a01b0390921660048301526024820152604401602060405180830381600087803b15801561041c57600080fd5b505af1158015610430573d6000803e3d6000fd5b505050506040513d601f19601f820116820180604052508101906101cd919061075a565b600030868686868633604051610469906105e9565b6001600160a01b039788168152958716602087015260408601949094526060850192909252608084015260a083015290911660c082015260e001604051809103906000f0801580156104bf573d6000803e3d6000fd5b506040516340c10f1960e01b81526001600160a01b038083166004830152602482018590529192506000917f000000000000000000000000000000000000000000000000000000000000000016906340c10f1990604401602060405180830381600087803b15801561053057600080fd5b505af1158015610544573d6000803e3d6000fd5b505050506040513d601f19601f8201168201806040525081019061056891906106d7565b6001600160a01b03838116600081815260208181526040918290208590558151928352928b1692820192909252908101889052606081018790526080810186905260a081018590529091507f561faa1c4d603a597e533cc2d00e3c12bbb28cf985d53307a6a9ecde735768739060c00160405180910390a150505050505050565b6112688061077d83390190565b6001600160a01b038116811461060b57600080fd5b50565b6000806040838503121561062157600080fd5b823561062c816105f6565b946020939093013593505050565b60008060006060848603121561064f57600080fd5b833561065a816105f6565b95602085013595506040909401359392505050565b600080600080600060a0868803121561068757600080fd5b8535610692816105f6565b97602087013597506040870135966060810135965060800135945092505050565b6000602082840312156106c557600080fd5b81356106d0816105f6565b9392505050565b6000602082840312156106e957600080fd5b5051919050565b634e487b7160e01b600052601160045260246000fd5b60008219821115610719576107196106f0565b500190565b60006020828403121561073057600080fd5b81516106d0816105f6565b6000816000190483118215151615610755576107556106f0565b500290565b60006020828403121561076c57600080fd5b815180151581146106d057600080fdfe60806040526000600a553480156200001657600080fd5b50604051620012683803806200126883398101604081905262000039916200017e565b600085116200008f5760405162461bcd60e51b815260206004820152601e60248201527f50726963652073686f756c642062652067726561746572207468616e2030000060448201526064015b60405180910390fd5b60008211620000e15760405162461bcd60e51b815260206004820152601d60248201527f537570706c79206d7573742062652067726561746572207468616e2030000000604482015260640162000086565b600080546001600160a01b038089166001600160a01b031992831617909255600187905560028690556003859055600484905560058490556006805484841690831617905560078054928a16929091169190911790556200014484606462000205565b62000150908662000220565b600855506200024295505050505050565b80516001600160a01b03811681146200017957600080fd5b919050565b600080600080600080600060e0888a0312156200019a57600080fd5b620001a58862000161565b9650620001b56020890162000161565b955060408801519450606088015193506080880151925060a08801519150620001e160c0890162000161565b905092959891949750929550565b634e487b7160e01b600052601160045260246000fd5b600082198211156200021b576200021b620001ef565b500190565b60008160001904831182151516156200023d576200023d620001ef565b500290565b61101680620002526000396000f3fe608060405234801561001057600080fd5b50600436106101215760003560e01c806375312c62116100ad578063bc197c8111610071578063bc197c81146101f0578063c370b04214610228578063ea8a1af014610253578063f23a6e611461025b578063f851a4401461027a57600080fd5b806375312c62146101a357806394f0cf70146101c3578063aee120d6146101cc578063b6b55f25146101d4578063ba5d3078146101e757600080fd5b80632fc9629b116100f45780632fc9629b146101775780633ccfd60b146101805780635049b2781461018a57806355c0134514610192578063614619541461019b57600080fd5b806301ffc9a714610126578063047fc9aa1461014e578063200d2ed214610165578063204f83f91461016e575b600080fd5b610139610134366004610afd565b61028d565b60405190151581526020015b60405180910390f35b61015760045481565b604051908152602001610145565b610157600a5481565b61015760035481565b61015760085481565b6101886102c4565b005b610188610422565b61015760025481565b610188610750565b6101576101b1366004610b4a565b60096020526000908152604090205481565b61015760055481565b6101886107fb565b6101886101e2366004610b65565b6108e5565b61015760015481565b61020f6101fe366004610cb5565b63bc197c8160e01b95945050505050565b6040516001600160e01b03199091168152602001610145565b60005461023b906001600160a01b031681565b6040516001600160a01b039091168152602001610145565b610188610abb565b61020f610269366004610d5f565b63f23a6e6160e01b95945050505050565b60065461023b906001600160a01b031681565b60006001600160e01b03198216630271189760e51b14806102be57506301ffc9a760e01b6001600160e01b03198316145b92915050565b600280600a54146102d457600080fd5b6000546040805163313ce56760e01b815290516001600160a01b0390921691829163a9059cbb913391849163313ce56791600480820192602092909190829003018186803b15801561032557600080fd5b505afa158015610339573d6000803e3d6000fd5b505050506040513d601f19601f8201168201806040525081019061035d9190610dc4565b61036890600a610ee1565b600154336000908152600960205260409020546103859190610ef0565b61038f9190610ef0565b6040516001600160e01b031960e085901b1681526001600160a01b0390921660048301526024820152604401602060405180830381600087803b1580156103d557600080fd5b505af11580156103e9573d6000803e3d6000fd5b505050506040513d601f19601f8201168201806040525081019061040d9190610f0f565b50503360009081526009602052604081205550565b600180600a541461043257600080fd5b6003544210156104895760405162461bcd60e51b815260206004820152601c60248201527f54686520626f6e6420686173206e6f74206d617475726564207965740000000060448201526064015b60405180910390fd5b6000546040805163313ce56760e01b815290516001600160a01b0390921691600291839163313ce56791600480820192602092909190829003018186803b1580156104d357600080fd5b505afa1580156104e7573d6000803e3d6000fd5b505050506040513d601f19601f8201168201806040525081019061050b9190610dc4565b6105159190610f31565b61052090600a610ee1565b60085461052d9190610ef0565b6040516370a0823160e01b81523060048201526001600160a01b038316906370a082319060240160206040518083038186803b15801561056c57600080fd5b505afa158015610580573d6000803e3d6000fd5b505050506040513d601f19601f820116820180604052508101906105a49190610f54565b146106035760405162461bcd60e51b815260206004820152602960248201527f546865206465616c20636f6e747261637420686173206e6f7420796574206265604482015268195b88199d5b99195960ba1b6064820152608401610480565b600760009054906101000a90046001600160a01b03166001600160a01b031663cb7eb689336002846001600160a01b031663313ce5676040518163ffffffff1660e01b815260040160206040518083038186803b15801561066357600080fd5b505afa158015610677573d6000803e3d6000fd5b505050506040513d601f19601f8201168201806040525081019061069b9190610dc4565b6106a59190610f31565b6106b090600a610ee1565b6002546106be906064610f6d565b6001546106cb9190610ef0565b6106d59190610ef0565b336000908152600960205260409081902054905160e085901b6001600160e01b03191681526001600160a01b03909316600484015260248301919091526044820152606401600060405180830381600087803b15801561073457600080fd5b505af1158015610748573d6000803e3d6000fd5b505050505050565b6006546001600160a01b0316331461077a5760405162461bcd60e51b815260040161048090610f85565b600080600a541461078a57600080fd5b600554156107f35760405162461bcd60e51b815260206004820152603060248201527f4465616c2063616e6e6f742065786563757465206265636175736520616d6f7560448201526f06e74206c656674206973206e6f7420360841b6064820152608401610480565b506001600a55565b600180600a541461080b57600080fd5b3360009081526009602052604090205461085d5760405162461bcd60e51b8152602060048201526013602482015272139bc8189bdb991cc81d1bc818dbdb1b1958dd606a1b6044820152606401610480565b6007543360008181526009602052604090819020549051633c4a59fd60e01b8152600481019290925260248201526001600160a01b0390911690633c4a59fd90604401600060405180830381600087803b1580156108ba57600080fd5b505af11580156108ce573d6000803e3d6000fd5b505033600090815260096020526040812055505050565b600080600a54146108f557600080fd5b6005548211156109475760405162461bcd60e51b815260206004820152601f60248201527f546865726520617265206e6f7420656e6f75676820626f6e6473206c656674006044820152606401610480565b6000546040805163313ce56760e01b815290516001600160a01b039092169182916323b872dd9133913091859163313ce567916004808301926020929190829003018186803b15801561099957600080fd5b505afa1580156109ad573d6000803e3d6000fd5b505050506040513d601f19601f820116820180604052508101906109d19190610dc4565b6109dc90600a610ee1565b6001546109e99089610ef0565b6109f39190610ef0565b6040516001600160e01b031960e086901b1681526001600160a01b0393841660048201529290911660248301526044820152606401602060405180830381600087803b158015610a4257600080fd5b505af1158015610a56573d6000803e3d6000fd5b505050506040513d601f19601f82011682018060405250810190610a7a9190610f0f565b508260056000828254610a8d9190610fc9565b90915550503360009081526009602052604081208054859290610ab1908490610f6d565b9091555050505050565b6006546001600160a01b03163314610ae55760405162461bcd60e51b815260040161048090610f85565b600080600a5414610af557600080fd5b506002600a55565b600060208284031215610b0f57600080fd5b81356001600160e01b031981168114610b2757600080fd5b9392505050565b80356001600160a01b0381168114610b4557600080fd5b919050565b600060208284031215610b5c57600080fd5b610b2782610b2e565b600060208284031215610b7757600080fd5b5035919050565b634e487b7160e01b600052604160045260246000fd5b604051601f8201601f1916810167ffffffffffffffff81118282101715610bbd57610bbd610b7e565b604052919050565b600082601f830112610bd657600080fd5b8135602067ffffffffffffffff821115610bf257610bf2610b7e565b8160051b610c01828201610b94565b9283528481018201928281019087851115610c1b57600080fd5b83870192505b84831015610c3a57823582529183019190830190610c21565b979650505050505050565b600082601f830112610c5657600080fd5b813567ffffffffffffffff811115610c7057610c70610b7e565b610c83601f8201601f1916602001610b94565b818152846020838601011115610c9857600080fd5b816020850160208301376000918101602001919091529392505050565b600080600080600060a08688031215610ccd57600080fd5b610cd686610b2e565b9450610ce460208701610b2e565b9350604086013567ffffffffffffffff80821115610d0157600080fd5b610d0d89838a01610bc5565b94506060880135915080821115610d2357600080fd5b610d2f89838a01610bc5565b93506080880135915080821115610d4557600080fd5b50610d5288828901610c45565b9150509295509295909350565b600080600080600060a08688031215610d7757600080fd5b610d8086610b2e565b9450610d8e60208701610b2e565b93506040860135925060608601359150608086013567ffffffffffffffff811115610db857600080fd5b610d5288828901610c45565b600060208284031215610dd657600080fd5b815160ff81168114610b2757600080fd5b634e487b7160e01b600052601160045260246000fd5b600181815b80851115610e38578160001904821115610e1e57610e1e610de7565b80851615610e2b57918102915b93841c9390800290610e02565b509250929050565b600082610e4f575060016102be565b81610e5c575060006102be565b8160018114610e725760028114610e7c57610e98565b60019150506102be565b60ff841115610e8d57610e8d610de7565b50506001821b6102be565b5060208310610133831016604e8410600b8410161715610ebb575081810a6102be565b610ec58383610dfd565b8060001904821115610ed957610ed9610de7565b029392505050565b6000610b2760ff841683610e40565b6000816000190483118215151615610f0a57610f0a610de7565b500290565b600060208284031215610f2157600080fd5b81518015158114610b2757600080fd5b600060ff821660ff841680821015610f4b57610f4b610de7565b90039392505050565b600060208284031215610f6657600080fd5b5051919050565b60008219821115610f8057610f80610de7565b500190565b60208082526024908201527f4d7573742062652061646d696e20746f2063616c6c20746869732066756e637460408201526334b7b71760e11b606082015260800190565b600082821015610fdb57610fdb610de7565b50039056fea26469706673582212202a155aa85407d7d9d7e5345212d829c55afcf1297ff1f71bbe4742d0b53e2a1564736f6c63430008090033a2646970667358221220e0c5a3ea37e36fdcd9a99c4422c2c3738a981aaf5d7fcb44ee12a75bb00b4ef164736f6c6343000809003360806040523480156200001157600080fd5b506040805160208101909152600081526200002c816200003e565b50620000383362000057565b6200018c565b805162000053906002906020840190620000a9565b5050565b600380546001600160a01b038381166001600160a01b0319831681179093556040519116919082907f8be0079c531659141344cd1fd0a4f28419497f9722a3daafe3b4186f6b6457e090600090a35050565b828054620000b7906200014f565b90600052602060002090601f016020900481019282620000db576000855562000126565b82601f10620000f657805160ff191683800117855562000126565b8280016001018555821562000126579182015b828111156200012657825182559160200191906001019062000109565b506200013492915062000138565b5090565b5b8082111562000134576000815560010162000139565b600181811c908216806200016457607f821691505b602082108114156200018657634e487b7160e01b600052602260045260246000fd5b50919050565b611da0806200019c6000396000f3fe608060405234801561001057600080fd5b50600436106100ff5760003560e01c8063715018a611610097578063e985e9c511610066578063e985e9c514610240578063f242432a1461027c578063f2fde38b1461028f578063f5298aca146102a257600080fd5b8063715018a6146101ea5780638da5cb5b146101f2578063a22cb4651461020d578063bd85b0391461022057600080fd5b806340c10f19116100d357806340c10f19146101825780634e1273f4146101955780634f558e79146101b55780636b20c454146101d757600080fd5b8062fdd58e1461010457806301ffc9a71461012a5780630e89341c1461014d5780632eb2c2d61461016d575b600080fd5b6101176101123660046113c6565b6102b5565b6040519081526020015b60405180910390f35b61013d610138366004611406565b61034b565b6040519015158152602001610121565b61016061015b36600461142a565b61039d565b6040516101219190611490565b61018061017b3660046115ef565b610431565b005b6101176101903660046113c6565b61047d565b6101a86101a3366004611699565b6104c6565b604051610121919061179f565b61013d6101c336600461142a565b600090815260046020526040902054151590565b6101806101e53660046117b2565b6105f0565b610180610638565b6003546040516001600160a01b039091168152602001610121565b61018061021b366004611826565b61064c565b61011761022e36600461142a565b60009081526004602052604090205490565b61013d61024e366004611862565b6001600160a01b03918216600090815260016020908152604080832093909416825291909152205460ff1690565b61018061028a366004611895565b61065b565b61018061029d3660046118fa565b6106a0565b6101806102b0366004611915565b610719565b60006001600160a01b0383166103255760405162461bcd60e51b815260206004820152602a60248201527f455243313135353a2061646472657373207a65726f206973206e6f742061207660448201526930b634b21037bbb732b960b11b60648201526084015b60405180910390fd5b506000908152602081815260408083206001600160a01b03949094168352929052205490565b60006001600160e01b03198216636cdb3d1360e11b148061037c57506001600160e01b031982166303a24d0760e21b145b8061039757506301ffc9a760e01b6001600160e01b03198316145b92915050565b6060600280546103ac90611948565b80601f01602080910402602001604051908101604052809291908181526020018280546103d890611948565b80156104255780601f106103fa57610100808354040283529160200191610425565b820191906000526020600020905b81548152906001019060200180831161040857829003601f168201915b50505050509050919050565b6001600160a01b03851633148061044d575061044d853361024e565b6104695760405162461bcd60e51b815260040161031c90611983565b610476858585858561075c565b5050505050565b6000610487610906565b6104a4836005548460405180602001604052806000815250610960565b6001600560008282546104b791906119e7565b90915550506005549392505050565b6060815183511461052b5760405162461bcd60e51b815260206004820152602960248201527f455243313135353a206163636f756e747320616e6420696473206c656e677468604482015268040dad2e6dac2e8c6d60bb1b606482015260840161031c565b6000835167ffffffffffffffff811115610547576105476114a3565b604051908082528060200260200182016040528015610570578160200160208202803683370190505b50905060005b84518110156105e8576105bb858281518110610594576105946119ff565b60200260200101518583815181106105ae576105ae6119ff565b60200260200101516102b5565b8282815181106105cd576105cd6119ff565b60209081029190910101526105e181611a15565b9050610576565b509392505050565b6001600160a01b03831633148061060c575061060c833361024e565b6106285760405162461bcd60e51b815260040161031c90611983565b610633838383610a83565b505050565b610640610906565b61064a6000610c20565b565b610657338383610c72565b5050565b6001600160a01b0385163314806106775750610677853361024e565b6106935760405162461bcd60e51b815260040161031c90611983565b6104768585858585610d53565b6106a8610906565b6001600160a01b03811661070d5760405162461bcd60e51b815260206004820152602660248201527f4f776e61626c653a206e6577206f776e657220697320746865207a65726f206160448201526564647265737360d01b606482015260840161031c565b61071681610c20565b50565b6001600160a01b0383163314806107355750610735833361024e565b6107515760405162461bcd60e51b815260040161031c90611983565b610633838383610e8b565b815183511461077d5760405162461bcd60e51b815260040161031c90611a30565b6001600160a01b0384166107a35760405162461bcd60e51b815260040161031c90611a78565b336107b2818787878787610fa3565b60005b84518110156108985760008582815181106107d2576107d26119ff565b6020026020010151905060008583815181106107f0576107f06119ff565b602090810291909101810151600084815280835260408082206001600160a01b038e1683529093529190912054909150818110156108405760405162461bcd60e51b815260040161031c90611abd565b6000838152602081815260408083206001600160a01b038e8116855292528083208585039055908b1682528120805484929061087d9084906119e7565b925050819055505050508061089190611a15565b90506107b5565b50846001600160a01b0316866001600160a01b0316826001600160a01b03167f4a39dc06d4c0dbc64b70af90fd698a233a518aa5d07e595d983b8c0526c8f7fb87876040516108e8929190611b07565b60405180910390a46108fe818787878787610fb1565b505050505050565b6003546001600160a01b0316331461064a5760405162461bcd60e51b815260206004820181905260248201527f4f776e61626c653a2063616c6c6572206973206e6f7420746865206f776e6572604482015260640161031c565b6001600160a01b0384166109c05760405162461bcd60e51b815260206004820152602160248201527f455243313135353a206d696e7420746f20746865207a65726f206164647265736044820152607360f81b606482015260840161031c565b3360006109cc8561111c565b905060006109d98561111c565b90506109ea83600089858589610fa3565b6000868152602081815260408083206001600160a01b038b16845290915281208054879290610a1a9084906119e7565b909155505060408051878152602081018790526001600160a01b03808a1692600092918716917fc3d58168c5ae7397731d063d5bbf3d657854427343f4c083240f7aacaa2d0f62910160405180910390a4610a7a83600089898989611167565b50505050505050565b6001600160a01b038316610aa95760405162461bcd60e51b815260040161031c90611b35565b8051825114610aca5760405162461bcd60e51b815260040161031c90611a30565b6000339050610aed81856000868660405180602001604052806000815250610fa3565b60005b8351811015610bb2576000848281518110610b0d57610b0d6119ff565b602002602001015190506000848381518110610b2b57610b2b6119ff565b602090810291909101810151600084815280835260408082206001600160a01b038c168352909352919091205490915081811015610b7b5760405162461bcd60e51b815260040161031c90611b78565b6000928352602083815260408085206001600160a01b038b1686529091529092209103905580610baa81611a15565b915050610af0565b5060006001600160a01b0316846001600160a01b0316826001600160a01b03167f4a39dc06d4c0dbc64b70af90fd698a233a518aa5d07e595d983b8c0526c8f7fb8686604051610c03929190611b07565b60405180910390a460408051602081019091526000905250505050565b600380546001600160a01b038381166001600160a01b0319831681179093556040519116919082907f8be0079c531659141344cd1fd0a4f28419497f9722a3daafe3b4186f6b6457e090600090a35050565b816001600160a01b0316836001600160a01b03161415610ce65760405162461bcd60e51b815260206004820152602960248201527f455243313135353a2073657474696e6720617070726f76616c20737461747573604482015268103337b91039b2b63360b91b606482015260840161031c565b6001600160a01b03838116600081815260016020908152604080832094871680845294825291829020805460ff191686151590811790915591519182527f17307eab39ab6107e8899845ad3d59bd9653f200f220920489ca2b5937696c31910160405180910390a3505050565b6001600160a01b038416610d795760405162461bcd60e51b815260040161031c90611a78565b336000610d858561111c565b90506000610d928561111c565b9050610da2838989858589610fa3565b6000868152602081815260408083206001600160a01b038c16845290915290205485811015610de35760405162461bcd60e51b815260040161031c90611abd565b6000878152602081815260408083206001600160a01b038d8116855292528083208985039055908a16825281208054889290610e209084906119e7565b909155505060408051888152602081018890526001600160a01b03808b16928c821692918816917fc3d58168c5ae7397731d063d5bbf3d657854427343f4c083240f7aacaa2d0f62910160405180910390a4610e80848a8a8a8a8a611167565b505050505050505050565b6001600160a01b038316610eb15760405162461bcd60e51b815260040161031c90611b35565b336000610ebd8461111c565b90506000610eca8461111c565b9050610eea83876000858560405180602001604052806000815250610fa3565b6000858152602081815260408083206001600160a01b038a16845290915290205484811015610f2b5760405162461bcd60e51b815260040161031c90611b78565b6000868152602081815260408083206001600160a01b038b81168086529184528285208a8703905582518b81529384018a90529092908816917fc3d58168c5ae7397731d063d5bbf3d657854427343f4c083240f7aacaa2d0f62910160405180910390a4604080516020810190915260009052610a7a565b6108fe868686868686611231565b6001600160a01b0384163b156108fe5760405163bc197c8160e01b81526001600160a01b0385169063bc197c8190610ff59089908990889088908890600401611bbc565b602060405180830381600087803b15801561100f57600080fd5b505af192505050801561103f575060408051601f3d908101601f1916820190925261103c91810190611c1a565b60015b6110ec5761104b611c37565b806308c379a014156110855750611060611c53565b8061106b5750611087565b8060405162461bcd60e51b815260040161031c9190611490565b505b60405162461bcd60e51b815260206004820152603460248201527f455243313135353a207472616e7366657220746f206e6f6e2d455243313135356044820152732932b1b2b4bb32b91034b6b83632b6b2b73a32b960611b606482015260840161031c565b6001600160e01b0319811663bc197c8160e01b14610a7a5760405162461bcd60e51b815260040161031c90611cdd565b60408051600180825281830190925260609160009190602080830190803683370190505090508281600081518110611156576111566119ff565b602090810291909101015292915050565b6001600160a01b0384163b156108fe5760405163f23a6e6160e01b81526001600160a01b0385169063f23a6e61906111ab9089908990889088908890600401611d25565b602060405180830381600087803b1580156111c557600080fd5b505af19250505080156111f5575060408051601f3d908101601f191682019092526111f291810190611c1a565b60015b6112015761104b611c37565b6001600160e01b0319811663f23a6e6160e01b14610a7a5760405162461bcd60e51b815260040161031c90611cdd565b6001600160a01b0385166112b85760005b83518110156112b65782818151811061125d5761125d6119ff565b60200260200101516004600086848151811061127b5761127b6119ff565b6020026020010151815260200190815260200160002060008282546112a091906119e7565b909155506112af905081611a15565b9050611242565b505b6001600160a01b0384166108fe5760005b8351811015610a7a5760008482815181106112e6576112e66119ff565b602002602001015190506000848381518110611304576113046119ff565b60200260200101519050600060046000848152602001908152602001600020549050818110156113875760405162461bcd60e51b815260206004820152602860248201527f455243313135353a206275726e20616d6f756e74206578636565647320746f74604482015267616c537570706c7960c01b606482015260840161031c565b600092835260046020526040909220910390556113a381611a15565b90506112c9565b80356001600160a01b03811681146113c157600080fd5b919050565b600080604083850312156113d957600080fd5b6113e2836113aa565b946020939093013593505050565b6001600160e01b03198116811461071657600080fd5b60006020828403121561141857600080fd5b8135611423816113f0565b9392505050565b60006020828403121561143c57600080fd5b5035919050565b6000815180845260005b818110156114695760208185018101518683018201520161144d565b8181111561147b576000602083870101525b50601f01601f19169290920160200192915050565b6020815260006114236020830184611443565b634e487b7160e01b600052604160045260246000fd5b601f8201601f1916810167ffffffffffffffff811182821017156114df576114df6114a3565b6040525050565b600067ffffffffffffffff821115611500576115006114a3565b5060051b60200190565b600082601f83011261151b57600080fd5b81356020611528826114e6565b60405161153582826114b9565b83815260059390931b850182019282810191508684111561155557600080fd5b8286015b848110156115705780358352918301918301611559565b509695505050505050565b600082601f83011261158c57600080fd5b813567ffffffffffffffff8111156115a6576115a66114a3565b6040516115bd601f8301601f1916602001826114b9565b8181528460208386010111156115d257600080fd5b816020850160208301376000918101602001919091529392505050565b600080600080600060a0868803121561160757600080fd5b611610866113aa565b945061161e602087016113aa565b9350604086013567ffffffffffffffff8082111561163b57600080fd5b61164789838a0161150a565b9450606088013591508082111561165d57600080fd5b61166989838a0161150a565b9350608088013591508082111561167f57600080fd5b5061168c8882890161157b565b9150509295509295909350565b600080604083850312156116ac57600080fd5b823567ffffffffffffffff808211156116c457600080fd5b818501915085601f8301126116d857600080fd5b813560206116e5826114e6565b6040516116f282826114b9565b83815260059390931b850182019282810191508984111561171257600080fd5b948201945b8386101561173757611728866113aa565b82529482019490820190611717565b9650508601359250508082111561174d57600080fd5b5061175a8582860161150a565b9150509250929050565b600081518084526020808501945080840160005b8381101561179457815187529582019590820190600101611778565b509495945050505050565b6020815260006114236020830184611764565b6000806000606084860312156117c757600080fd5b6117d0846113aa565b9250602084013567ffffffffffffffff808211156117ed57600080fd5b6117f98783880161150a565b9350604086013591508082111561180f57600080fd5b5061181c8682870161150a565b9150509250925092565b6000806040838503121561183957600080fd5b611842836113aa565b91506020830135801515811461185757600080fd5b809150509250929050565b6000806040838503121561187557600080fd5b61187e836113aa565b915061188c602084016113aa565b90509250929050565b600080600080600060a086880312156118ad57600080fd5b6118b6866113aa565b94506118c4602087016113aa565b93506040860135925060608601359150608086013567ffffffffffffffff8111156118ee57600080fd5b61168c8882890161157b565b60006020828403121561190c57600080fd5b611423826113aa565b60008060006060848603121561192a57600080fd5b611933846113aa565b95602085013595506040909401359392505050565b600181811c9082168061195c57607f821691505b6020821081141561197d57634e487b7160e01b600052602260045260246000fd5b50919050565b6020808252602e908201527f455243313135353a2063616c6c6572206973206e6f7420746f6b656e206f776e60408201526d195c881bdc88185c1c1c9bdd995960921b606082015260800190565b634e487b7160e01b600052601160045260246000fd5b600082198211156119fa576119fa6119d1565b500190565b634e487b7160e01b600052603260045260246000fd5b6000600019821415611a2957611a296119d1565b5060010190565b60208082526028908201527f455243313135353a2069647320616e6420616d6f756e7473206c656e677468206040820152670dad2e6dac2e8c6d60c31b606082015260800190565b60208082526025908201527f455243313135353a207472616e7366657220746f20746865207a65726f206164604082015264647265737360d81b606082015260800190565b6020808252602a908201527f455243313135353a20696e73756666696369656e742062616c616e636520666f60408201526939103a3930b739b332b960b11b606082015260800190565b604081526000611b1a6040830185611764565b8281036020840152611b2c8185611764565b95945050505050565b60208082526023908201527f455243313135353a206275726e2066726f6d20746865207a65726f206164647260408201526265737360e81b606082015260800190565b60208082526024908201527f455243313135353a206275726e20616d6f756e7420657863656564732062616c604082015263616e636560e01b606082015260800190565b6001600160a01b0386811682528516602082015260a060408201819052600090611be890830186611764565b8281036060840152611bfa8186611764565b90508281036080840152611c0e8185611443565b98975050505050505050565b600060208284031215611c2c57600080fd5b8151611423816113f0565b600060033d1115611c505760046000803e5060005160e01c5b90565b600060443d1015611c615790565b6040516003193d81016004833e81513d67ffffffffffffffff8160248401118184111715611c9157505050505090565b8285019150815181811115611ca95750505050505090565b843d8701016020828501011115611cc35750505050505090565b611cd2602082860101876114b9565b509095945050505050565b60208082526028908201527f455243313135353a204552433131353552656365697665722072656a656374656040820152676420746f6b656e7360c01b606082015260800190565b6001600160a01b03868116825285166020820152604081018490526060810183905260a060808201819052600090611d5f90830184611443565b97965050505050505056fea2646970667358221220c2dc59661191ec13b016b9e10f1d33cf358cf4e1741e4aa464a6ac5f346f048664736f6c63430008090033",
  "linkReferences": {},
  "deployedLinkReferences": {}
}